:020000040800F2
:1000000040060020C1010008C9010008CB0100081A
:10001000CD010008CF010008D10100080000000058
:10002000000000000000000000000000D3010008F4
:10003000D501000800000000D70100088F2A000841
:10004000DB010008DB010008DB010008DB01000820
:10005000DB010008DB010008DB010008DB01000810
:10006000DB010008DB010008DB010008DB01000800
:10007000DB010008DB010008DB010008DB010008F0
:10008000DB010008DB010008DB010008DB010008E0
:10009000DB010008DB010008DB010008DB010008D0
:1000A000DB010008DB010008DB010008DB010008C0
:1000B000DB010008DB010008DB010008DB010008B0
:1000C000DB010008DB010008DB010008DB010008A0
:1000D000DB010008612E0008DB010008DB010008DD
:1000E000DB010008DB010008DB010008DB01000880
:1000F000DB010008DB010008DB010008DB01000870
:10010000DB010008DB010008DB010008DB0100085F
:10011000DB010008DB010008DB010008DB0100084F
:10012000DB010008DB010008DB010008DB0100083F
:10013000DB010008DB010008DB010008DB0100082F
:10014000DB010008DB010008DB010008DB0100081F
:10015000DB010008DB010008DB010008DB0100080F
:10016000DB010008DB010008DB010008DB010008FF
:10017000DB010008DB010008DB01000800000000D3
:10018000DB010008DB010008DB010008DB010008DF
:10019000DB010008DB010008DB010008DB010008CF
:1001A000DB010008DB010008DB010008DFF80CD0F0
:1001B00000F020F8004800470D33000840060020FA
:1001C0000648804706480047FEE7FEE7FEE7FEE7F1
:1001D000FEE7FEE7FEE7FEE7FEE7FEE7B92A0008D6
:1001E000AD010008421C10F8011B0029FBD1801A48
:1001F00070470000064C074D06E0E06840F0010340
:1002000094E8070098471034AC42F6D3FFF7D2FFCA
:100210001C3700083C3700080146014800F058BD73
:10022000A0000020014800F02CBD0000A00000202C
:100230001FB501208DF800009DF80000012802D0B4
:10024000012004B010BD0C490C4800F098FE0400D9
:100250000DD16946094800F0DBFC9DF80000042838
:1002600007D00021054801F06FF800B101242046B5
:10027000E7E74FF40061F5E700010020A00000204F
:100280001CB5DDE90414CDE900140146034800F073
:10029000F3FE002800D001201CBD0000A0000020BB
:1002A0001CB5DDE90414CDE900140146034801F052
:1002B0007BF8002800D001201CBD0000A000002019
:1002C00010B50C4A04460120137A012B11D8107A7C
:1002D00000231354107A02EB80004460107A441C0F
:1002E0001472303008703A2048702F208870CB701C
:1002F000184610BD3402002030B5D1E901231A435D
:10030000D1E9033423431A434B690D681A438B69BF
:100310001A43D1E90734496A012D04D01A43224314
:100320000A43026003E023430B4303604260002062
:1003300030BDF0B56FF00F05D1E9003405EB0414C2
:100340005B1E2E0123438C682F0306EB04244FEA27
:10035000054C23430D8A8E8ACC68097E4FF07F4E70
:1003600007EB05450CEB06560EEB0161012A08D0A0
:100370003A1102EB043213432B4333430B438360A4
:1003800007E02B430B432103A1F580513143C360A8
:1003900081600020F0BD31B500F052F9044600F054
:1003A0004FF90099001B8842F9D338BDF0B52848B1
:1003B00085B00168002948D10127076025480168F8
:1003C00041F0010101604FF63F000090022500243A
:1003D000CDE901540C26CDE9034669461E4800F0DC
:1003E00047F80097CDE90154CDE9034669461B481B
:1003F00000F03EF848F233100090CDE90154CDE909
:1004000003466946164800F033F84FF683700090B3
:10041000CDE90154CDE903466946124800F028F8B9
:100420004CF203700090CDE90154CDE903466946D2
:100430000D4800F01DF860200090CDE90154CDE991
:1004400003466946094800F013F805B0F0BD000006
:1004500058000020383802400014024000080240D2
:100460000018024000100240000C0240000402404C
:100470002DE9F04FDFF888B100224FF001084FF06E
:10048000030A4FF00F090BF1040E00BF0B6808FAC6
:1004900002F42340A3426FD14D68022D01D0122DEA
:1004A0000ED1D50800EB850CDCF820505607F70E6E
:1004B00009FA07F6B5430E69BE402E43CCF820601A
:1004C000066855000F790AFA05FC07F0030726EACB
:1004D0000C06AF40374307604E68012E05D0022E50
:1004E00003D0112E01D0122E0ED18768CE6827EAD4
:1004F0000C07AE403E4386604668A6430C79C4F3C1
:100500000014944034434460C4688E6824EA0C04A8
:10051000AE402643C6604C68E4006BD5394C256874
:1005200045F480452560384C22F003052F19D7F893
:1005300008589407240F09FA04F6B543334EB04225
:1005400001D100262EE0324EB04201D1012629E031
:10055000304EB04201D1022624E02F4EB04201D1EC
:1005600003261FE02D4EB04201D104261AE02C4E86
:10057000B04202D1052615E03CE02A4EB04201D13E
:1005800006260FE0284EB04201D107260AE0274E8A
:10059000B04201D1082605E0254EB04201D109261E
:1005A00000E00A26A6402E43C7F80868DBF80040A2
:1005B0005D464E689C43F60300D51C432C60DEF874
:1005C000004075464E689C43B60300D51C432C6022
:1005D0000B4D08352C684E689C43F60200D51C4331
:1005E0002C60074D0C352C684E689C43B60200D534
:1005F0001C432C60521C102AFFF448AFBDE8F08F5A
:10060000003C0140443802400030014000000240FC
:100610000004024000080240000C024000100240AA
:100620000014024000180240001C0240002002405A
:10063000002402400AB101837047418370470000E3
:1006400001480068704700007400002010B50400E5
:1006500002D0607B10B104E0012010BD204600F004
:1006600018F802206073216845F255500860206830
:100670004168626821F00701114341602068816888
:10068000A2686FF30B0111438160012060730020A9
:1006900010BD704702480168491C016070470000A6
:1006A000740000200B4810B5016841F4007101602E
:1006B000016841F480610160016841F4807101606A
:1006C000032000F051F8002000F006F800F015F8C3
:1006D000002010BD003C024010B5044600F056F862
:1006E0004FF47A71B0FBF1F001F09DFA002221463F
:1006F000501E00F019F8002010BD704700F01F02D6
:10070000012191404009800000F1E020C0F88012F2
:10071000704700F01F02012191404009800000F164
:10072000E020C0F800117047F0B40E4B1B680C4677
:10073000C3F30223C3F10705042D00D90425191DB5
:10074000072901D2002300E0DB1E012606FA05F18D
:10075000491E214099409E40761E16403143F0BC10
:1007600001F0DEBC0CED00E0064900F0070208686D
:100770004FF6FF03184040EA0220034A1043086086
:10078000704700000CED00E00000FA0500B500F035
:1007900043F808490968F02292FAA2F201F0F00148
:1007A000B2FA82F2D140044A515CC8400349086061
:1007B00000BD000008380240F43600086000002048
:1007C00000B5FFF7E3FF074909684FF4E05292FADA
:1007D000A2F201F4E051B2FA82F2D140024A515C35
:1007E000C84000BD08380240F436000800B5FFF7E5
:1007F000CDFF074909684FF4604292FAA2F201F472
:100800006041B2FA82F2D140024A515CC84000BD58
:1008100008380240F436000830B51D48006810F072
:100820000C011C481AD04410042916D0082915D1EF
:100830001749091F0A6802F03F030A6802F480059D
:100840004FF4800292FAA2F2B2FA82F2D54047F651
:10085000C07204D0B4FBF3F003E0204630BDB0FB1F
:10086000F3F00B680968134092FAA2F2B2FA82F22E
:10087000D34058434FF4403292FAA2F201F440318F
:10088000B2FA82F2D140491C4900B0FBF1F030BD10
:10089000083802400024F4002DE9F84F044600789F
:1008A000DFF818A3C64DC0074FF000064DD0DAF8A8
:1008B00000105046C1F38101012908D00068C0F33F
:1008C000810002280AD1281D0068400206D5286848
:1008D00080033AD56068012873D136E0DFF8E092F2
:1008E00009F1020989F80060FFF7AAFE804641F28B
:1008F000883705E0FFF7A4FEA0EB0800B8427DD8DA
:1009000028688003F6D4207989F8000060680128FF
:1009100003D0FFF795FE804614E0FFF791FE804676
:1009200006E000BFFFF78CFEA0EB0800B842E6D857
:1009300028688003F6D508E0FFF782FEA0EB0800E8
:10094000B842DCD828688003F6D420789D4F800711
:100950004FF0010B45D5DAF80010504611F00C0F9E
:100960004FF0F80909D00068C0F3810002280BD1CC
:100970009248001F0068400206D42868800714D5FA
:10098000E0680128A8D110E0E068D8B1C7F800B04D
:10099000FFF756FE804605E0FFF752FEA0EB080089
:1009A0006428ACD828688007F6D5286899FAA9F297
:1009B0002169B2FA82F220F0F800914008432860E1
:1009C0000FE0F8E03E60FFF73BFE804606E000BF28
:1009D000FFF736FEA0EB080064280FD828688007D0
:1009E000F6D42078000729D5DFF8D09176486169E0
:1009F00009F16C0999B1C0F800B000E087E0FFF799
:100A00001FFE804606E000BFFFF71AFEA0EB0800BD
:100A100064287CD8D9F800008007F5D50EE0066080
:100A2000FFF70EFE804605E0FFF70AFEA0EB080088
:100A300064286CD8D9F800008007F5D420784007E6
:100A400056D55E483830016841F080510160DFF8CA
:100A50007C91D9F8001041F48071C9F80010FFF7BB
:100A6000EFFD804606E000BFFFF7EAFDA0EB0800BF
:100A700064284CD8D9F80000C005F5D5DFF83C81D2
:100A800008F1680888F80060FFF7DAFD41F288395C
:100A9000009005E0FFF7D4FD0099411A494536D88A
:100AA000D8F800008007F5D4207A88F80000A06804
:100AB000012803D0FFF7C4FD009015E0FFF7C0FD4B
:100AC000009005E0FFF7BCFD0099411A49456AD83E
:100AD000D8F800008007F5D50AE000BFFFF7B0FDA9
:100AE0000099411A49455ED8D8F800008007F5D42E
:100AF000A069E0B3DAF80010C1F3810102295AD0ED
:100B000002283E6604D0FFF79BFD04464EE04AE013
:100B1000FFF796FD064604E0FFF792FD801B642870
:100B200041D828688001F7D4D4E90710084347F674
:100B3000C07292FAA2F2616AB2FA82F29140A26A9B
:100B40004FF0FF3303EB52024FF4403393FAA3F319
:100B5000B3FA83F39A40114308434FF0706292FA5C
:100B6000A2F2E16AB2FA82F29140084300E020E08A
:100B700040F000511148001F0160C7F860B0FFF756
:100B80005FFD044605E000BFFFF75AFD001B642827
:100B900009D828688001F7D50BE000BFFFF750FDAA
:100BA000001B642802D90320BDE8F88F2868800163
:100BB000F4D40020F8E70120F6E7000008380240EE
:100BC0000038024000004742800E4742007000405B
:100BD00070B50D46040003D094F82C0010B104E069
:100BE000012070BD204600F011F8022084F82C008E
:100BF000211D2068FFF780FBD4E900022946FFF79A
:100C000098FB012084F82C00002070BDFFF7CEBBBC
:100C100010B590B00C46694600F0ECFA00282ED1D1
:100C20000098C0F3811020700098C0F340106070ED
:100C30000020608003996288C9B20A4362806060C4
:100C4000616861606168616007996268C9B20A435E
:100C5000626008992172099961720A99C1F30311BE
:100C6000A172A0810C99A289C9B20A43A2810D99EF
:100C7000C1F38501A1730D9901F00301E17310B077
:100C800010BD10B50446808C86B0000400900D2085
:100C9000019000214020CDE9020100010490694645
:100CA000206801F088FA0D21204601F099FA68B910
:100CB000002001F05FFAC0F34320042804D0FF288D
:100CC00004D0012006B010BD0020FBE70220F9E7A8
:100CD0002DE9F04790F8202081F85620828CA1F869
:100CE0005420826A0027120E93090B70C2F383030B
:100CF0004B7002F003028A70826A120CCA70028D75
:100D0000120A0A7190F828204A71C26A4FF6FF7AD7
:100D1000120E0AEA0212CA80C26ACB88C2F30742E4
:100D200043EA1213CB8002F00F020A72828DC2F3E3
:100D30000723DA094A72C3F380128A72C3F340129E
:100D4000CA72C3F300120A7300224A73046A4FF096
:100D50000109002C7DD0012CFCD0022C7AD029274F
:100D6000C3F380144C769B065B0E01F81A3F10F813
:100D7000303F0C7844EAD31401F8014B03F07F03B1
:100D800001F8013B50F8043F1B0EDC090C70C3F363
:100D900041144C70C3F382048C709B071B0FCB7003
:100DA00008C8CC78C3F3074344EA9314CC70C3F368
:100DB00040140C714A7103F001028A7130F8042C5E
:100DC000C2F30722D309CB71C2F380130B72C2F3B3
:100DD00040134B72C2F300138B72C2F38103CB72C8
:100DE00002F003020A7310F8042C52084A734B46AF
:100DF00081F80E9050F8082B120E0A7450F8082C47
:100E0000120C0AEA02224A8230F8082CC2F30724A4
:100E10004A8A22434A8210F8082C120641F8142FFD
:100E200050F8042C0C68120E44EA02420A6050F892
:100E3000042C0C68C2F3074244EA02220A6030F82C
:100E4000042C0C68C2F30722144310C110F8042CC0
:100E500001E034E076E001F8012B0268120E01F89F
:100E6000032B0268120C12060A6002880C68C2F397
:100E7000072244EA02420A6002780C6844EA02222D
:100E80000A6042680C6844EA126410C142680C7837
:100E9000C2F3074244EA121401F8024B1207120D82
:100EA0000A808288C2F307240A88224321F8022B91
:100EB0000079400808704B703846BDE8F0879B0702
:100EC0001B0D0B6190F82C300C6944EA83030B6115
:100ED000036B0C691B0E44EA93140C61C3F3C20448
:100EE0000C7503F007034B75036BC3F307435C09F1
:100EF0008C75C3F38204CC759B075B0F0B76038E56
:100F00000C7EC3F3072344EAD3140C760C690E7EDF
:100F1000B61C09FA06F5641CA4FB05684FEAE57CDB
:100F200002FB058504FB0C5591F808C009FA0CF486
:100F3000A6FB04C80C6505FB048406FB0244C1E95A
:100F400012C40DE790F82C309B069B0A0B61036BD3
:100F50000C691B0E44EA03230B61036B0C69C3F39A
:100F600007431C430C61038E0C69C3F30723641C05
:100F7000E404C1E912424FF400740C65F0E670B568
:100F800086B000240E4605468DF80C4000F046F869
:100F900076200094CDE90140234622462146286868
:100FA00001F0F0F8284601F093FB8DF80C009DF855
:100FB0000C0038B9284601F07EFA8DF80C009DF837
:100FC0000C0018B19DF80C0006B070BD31462846E3
:100FD000FFF77EFE8DF80C009DF80C00A0B9B6F866
:100FE0005400694600040090072001904020CDE99C
:100FF000020400010490286801F0DDF8072128466A
:1010000001F0EEF88DF80C0005F1100007C88DE82E
:10101000070095E80F0001F0B5F8D3E770B5006858
:10102000114986B088421CD11048016841F4006122
:1010300001604FF48850009002250024CDE901544E
:101040000C26CDE9034669460948FFF711FA04204A
:101050000090CDE90154CDE9034669460548FFF704
:1010600007FA06B070BD0000002C01404438024071
:1010700000080240000C02402DE9F04F8BB00446FE
:101080000D46DDE91478216800201646C862216A01
:10109000022903D10F02560A46EAC3561021CDE9B0
:1010A00000714021834608010291CDE903B06946F1
:1010B000206801F080F81021204601F091F8002806
:1010C0006DD14FF0FF3A08FB07F0CDE905A007A965
:1010D00090204FF0020981E8010A01200A9005A939
:1010E000206801F02DF8B8F1010F01D9122000E0BD
:1010F0001120CDE900606946206801F05CF8B8F184
:10110000010F1AD91221204601F06AF8060046D1D3
:1011100040F22A3B2068416B11EA0B0F28D1406B4B
:101120000004F7D50027206801F042F845F82700B1
:101130007F1C082FF7D32035ECE71121204601F062
:101140004FF806002BD140F22A6B2068416B11EA60
:101150000B0F0DD1406B0004F7D50027206801F07C
:1011600027F845F827007F1C082FF7D32035ECE738
:10117000406BC0050CD5B8F1010F09D9206A18B130
:10118000012801D0022803D1204600F0C7F8064606
:101190002168486B000705D50820886304200BB040
:1011A000BDE8F08F486B800703D54846C1F83890FA
:1011B000F5E7486B800603D5202088630620EEE71C
:1011C000486B800504D54FF4007088630720E6E77C
:1011D000574603E000F0ECFF01C57F1E2068416B1D
:1011E000890201D5002FF5D1216840F2FF508863B4
:1011F0003046D4E72DE9F04704468CB00D46002078
:1012000000F0B8FF800103D50E200CB0BDE8F087D8
:1012100040261020CDE90060002780010296CDE92C
:1012200003706946206800F0C6FF1021204600F0D8
:10123000D7FF0028E9D1A08C694600040090372030
:101240000190206800F0B7FF3721204600F0C8FF6A
:101250000028DAD16020CDE906604FF0FF384FF06A
:101260000209CDF82090CDF814800120CDE9097055
:1012700005A9206800F064FF0D20CDE900706946E3
:10128000206800F098FF0D21204600F0A9FF06001D
:10129000BBD140F22A6A2268506B10EA0A0F0DD1C6
:1012A000506B0004F7D50027206800F081FF45F857
:1012B00027007F1C082FF7D32035ECE7506B000781
:1012C00003D50820906304209FE7506B800703D567
:1012D0004846C2F8389098E7506B800603D5202026
:1012E0009063062091E7506B800504D54FF40070A1
:1012F0009063072089E7474604E000BF00F058FFED
:1013000001C57F1E2068416B890201D5002FF5D1F0
:10131000216840F2FF508863304676E710B586B00A
:10132000044600200C21CDE900014021CDE9021046
:10133000080104906946206800F03DFF0C2120461A
:1013400000F04EFF06B010BDFEB50446006A002551
:101350000E46032805D030B1012804D0022802D05F
:101360001FE02720FEBDB6F5805F05D0B6F5006F03
:1013700004D03EB1262514E0272512E0204601F0D6
:1013800098FA02E0204601F05BFA050009D1211D20
:10139000D4E905700EC90096CDE90170206800F00F
:1013A000F1FE2846FEBD00002DE9F04F8DB0044649
:1013B00000260D468DF80060DDE916982168174675
:1013C0003046CE62216A022904D1570A4FF40079CF
:1013D00047EAC3571021CDE9019140218346080116
:1013E000CDE904B0039101A9206800F0E4FE1021CA
:1013F000204600F0F5FE00287BD1B8F1010F01D99D
:10140000192000E01820CDE9017001A9206800F042
:10141000D2FEB8F1010F01D9192100E018212046B0
:1014200000F0DEFE002864D1411E069108FB09FA97
:101430009020CDE907A00120CDE90AB0CDF824B075
:1014400006A9206800F07CFEB8F1010F52D940F2E5
:101450001A3B2068416B11EA0B0F52D1406B4004DC
:10146000F7D5AAEB0600202811D281074FEA900099
:1014700000D0401C8146002706E02946206800F085
:10148000AAFE2D1D361D7F1C4F45E2D2F5E7002731
:1014900005EB8701206800F09EFE7F1C082FF7D324
:1014A00020352036D5E7486B400425D5AAEB060049
:1014B000202811D281074FEA900000D0401C8146BD
:1014C000002706E02946206800F085FE2D1D361D08
:1014D0007F1C4F4510D2F5E75FF0000705EB870151
:1014E000206800F078FE7F1C082FF7D320352036C7
:1014F00002E01DE040F21A6B2168486B10EA0B0F06
:10150000D1D02068406BC0050BD5B8F1010F08D9C8
:10151000206A18B1012801D0022802D12046FFF725
:10152000FDFE2168486B000705D50820886304206C
:101530000DB0BDE8F08F486B800702D502208863AC
:10154000F6E7486BC00603D5102088630520EFE757
:10155000486B800504D54FF4007088630720E7E7E7
:1015600040F2FF5088636946204601F013F80028D6
:10157000DED19DF800100729F5D00629F3D0D7E772
:1015800010B5040003D094F8510010B104E001201C
:1015900010BD204600F036F8022084F85100206883
:1015A000016821F040010160D4E901010843D4E958
:1015B00003121143084361690843218B01F4007150
:1015C0000843E1690843216A0843A16A0843216886
:1015D0000860A069042101EA1040616A084321689B
:1015E00048602168E06A08612068C16921F40061EF
:1015F000C161002084F85200012084F851000020CD
:1016000010BD0000F0B50068104985B088421BD1BC
:101610000F48016841F480510160D0200224002568
:101620008DE8310005260B4FCDE903566946384653
:10163000FEF71EFF2020CDE9000402AA694682E8D9
:1016400070003846FEF714FF05B0F0BD00300140D1
:1016500044380240000002402DE9F84F044690F85B
:1016600051009A4601287DD1F1B3EAB394F85000B5
:10167000012877D0012684F85060222084F8510098
:10168000002584F85250A163A287E287A564E5642F
:10169000A586E586A0684FF40049484504D1206836
:1016A000036823F480430360A06A4FF40057B842F4
:1016B00009D12068036823F400530360206803689D
:1016C00043F40053036060684FF48278404501D1D1
:1016D000A06878B120680168490603D4016841F028
:1016E00040010160E06800E001E0E8B131E0012084
:1016F000BDE8F88F84F8505013460A462046CDF8CE
:1017000000A000F037F9F3E75346002201212046FC
:1017100001F06EF938BB2068C168A06B421CA2635F
:101720000170E08F401EE087E08F0128ECD813E0C5
:10173000534600220121204601F05AF998B9206849
:10174000C068A16B0880A06B801CA063E08F401E66
:10175000E087E08F0128EBD8A06AB84207D1206863
:10176000016801E061E009E041F480510160534605
:1017700000220121204601F03BF908B10320B7E720
:10178000E0680028206818D0C068A16B0880A06BB2
:10179000801CA063E08F401EE087A06AB84216D18B
:1017A000534600220121204601F022F958B114F8D5
:1017B000520F40F002002070E0E7C168A06B421CAD
:1017C000A2630170E6E72068C068ADF800006068B9
:1017D00040450AD1A068484502D0B0F5806F04D1D9
:1017E0002068016821F04001016084F851602068A0
:1017F0008168A26AC1F30011BA4212D189B114F80A
:10180000521F41F0020104F81F19016821F4005130
:10181000016054F8330C016841F4005101606577B0
:1018200065E784F85050002062E7022060E72DE968
:10183000F041044690F851009846012870D139B320
:1018400032B394F8500001286AD0012684F8506021
:10185000122084F85100002584F852502163A2869A
:10186000E286E564A564A587E587A06A7703B842A8
:1018700009D12068016821F40051016020680168E5
:1018800041F400510160A068B0F5004F03D007E0BB
:101890000120BDE8F0812068016841F480410160C9
:1018A00020680168490603D4016841F040010160E5
:1018B000E0680028606804D0D8B1E08E012818D014
:1018C00021E010B1E08E012808D1206B411C21637A
:1018D00021680078C860E08E401EE0860004000C9D
:1018E0001FD0434600220221204601F081F8A8B90A
:1018F000EBE7206B21680088C860206B801C2063A8
:10190000E08E401EE0860004000C0AD04346002210
:101910000221204601F06CF80028EAD00320B8E745
:1019200026E0A06AB84204D12068016841F48051E1
:101930000160434600220221204601F059F830B9E7
:10194000434601228021204601F052F828B114F8C4
:10195000520F40F020002070E0E7A06810B9206826
:10196000C168806884F8516084F85050002090E786
:1019700002208EE72DE9F843044690F85100DDF887
:101980002080012801D022287ED169B162B15BB1EB
:1019900094F85000012877D0012684F8506094F81C
:1019A0005100012803D005E00120BDE8F883322072
:1019B00084F85100002584F85250A263A387E3877E
:1019C0002163A386E386A564E564A06A4FF400570B
:1019D000B84209D12068016821F4005101602068F3
:1019E000016841F40051016020680168490603D490
:1019F000016841F040010160E0684FF48271B0F588
:101A0000006F606807D0002867D088426ED1E08EF2
:101A1000012862D06AE020B188420CD1E08E012812
:101A200009D1206B21680088C860206B801C20636E
:101A3000E08E401EE086E08E80B9A06AB84244D1B4
:101A40002068016841F4805101603EE02068C06870
:101A5000A16B0880A06B801CA0639EE0434600221F
:101A60000221204600F0C4FF002873D1206B2168BA
:101A70000088C860206B801C2063E08E401E00043C
:101A8000000CE08609D100E0CAE0A06AB84204D1A7
:101A90002068016841F48051016043460022012121
:101AA000204600F0A5FF00286FD12068C068A16B18
:101AB0000880A06B801CA063E08F401EE087E08E52
:101AC0000028CBD1606800286AD14346002201215A
:101AD000204600F08DFFE8BBB8E7206B411C216376
:101AE00021680078C860E08E401EE086E08E98B9DC
:101AF000A06AB84204D12068016841F480510160B5
:101B0000434600220121204600F072FF10BB2068EE
:101B1000C068A16B087040E04346002202212046C5
:101B200000F066FFB0B9206B411C2163216800788A
:101B3000C860E08E401E0004000CE08607D1A06A59
:101B4000B84204D12068016841F4805101604346E5
:101B5000002200E019E00121204600F049FFA0B971
:101B60002068C168A06B421CA2630170E08F401E18
:101B7000E087E08E0028CFD1606888B94346002214
:101B80000121204600F034FF08B103200DE7206852
:101B9000C168A06B421CA2630170E08F401EE08709
:101BA000A06AB8420FD1434600220121204600F02E
:101BB0001FFF20B114F8520F40F002000EE0206821
:101BC000C068ADF80000434601228021204600F0A5
:101BD0000FFF28B114F8520F40F020002070D4E716
:101BE00084F8516020688168A26AC1F30011BA428A
:101BF00012D189B114F8521F41F0020104F81F19E3
:101C0000016821F40051016054F8330C016841F47B
:101C1000005101606577C7E684F850500020C4E6A3
:101C20000220C2E6704710B5401EB0F1807F01D39C
:101C3000012010BD4FF0E02460610F21601700F01B
:101C40006FFA0020A06107202061002010BD10B5B0
:101C5000FFF7E8FF10BD704710B50168044608683B
:101C6000CA6810F0010F02F4807208D03AB1086817
:101C7000486894F83A0040F0010084F83A00086897
:101C80004A69C0F3400002F0010240B13AB108686D
:101C9000486894F83A0040F0040084F83A00086874
:101CA0004A69C0F3800002F0010240B13AB108680D
:101CB000486894F83A0040F0020084F83A00086856
:101CC0004A69C0F3C00002F0010240B13AB10868AD
:101CD000486894F83A0040F0080084F83A00086830
:101CE000C968C0F3401001F0200118B111B12046BD
:101CF00000F00CFF21680868C968C0F3C01001F04B
:101D0000800118B111B1204601F010F894F83A00A2
:101D1000002805D0012084F839002046FFF79BFFFA
:101D200010BD10B5040003D094F8390010B104E0E0
:101D3000012010BD204600F023F8022084F839006D
:101D40002068C16821F40051C160204600F032FFD4
:101D50002068016921F4904101612068416921F006
:101D60002A0141612068C16841F40051C16000202E
:101D700084F83A00012084F83900002010BD0000EA
:101D800000B500680C4985B0884212D10B48016843
:101D900041F0100101604FF4C060009002200190FA
:101DA0000020029003900720049069460448FEF743
:101DB0005FFB05B000BD0000001001404438024048
:101DC000000002402DE9F047044690F8390099469A
:101DD0000D46012801D0122858D12DB322B394F812
:101DE0003800012852D0012684F83860002784F892
:101DF0003A7094F83900122819D0222084F839005A
:101E0000A285E2854FF48058E08D4B46401EE08568
:101E1000A0684FF0000240454FF02001204616D147
:101E200000F0D5FFB0B904E00120BDE8F087322012
:101E3000E4E7206900282068406803D0C1B225F893
:101E4000011B12E0C0F3080125F8021B0DE000F0B1
:101E5000BEFF08B10320E8E7206900282068406839
:101E600001D000F07F0005F8010BE08D0028CBD1F8
:101E700094F83900322805D084F8396084F8387035
:101E80000020D2E7122084F83900F7E70220CCE7DF
:101E900090F83930012B01D0122B2CD139B332B349
:101EA00090F83830012B26D0012380F83830816239
:101EB0008285C285002180F83A1090F83920122AD4
:101EC00017D0222280F839200268D36843F4807347
:101ED000D3600268536943F00103536180F83810FE
:101EE0000068C16841F02001C160002070470120F6
:101EF00070473222E6E70220704770472DE9F0472D
:101F0000044690F8390099460D46012801D0222850
:101F100058D12DB322B394F83800012852D00126AD
:101F200084F83860002784F83A7094F83900222841
:101F300019D0122084F83900A284E2844FF480582A
:101F4000E08C4B46401EE084A0684FF00002404504
:101F50004FF08001204613D100F039FF08BB04E0A8
:101F60000120BDE8F0873220E4E728882168C0F32B
:101F700008004860206908B16D1C08E0AD1C06E04F
:101F800000F025FF68B9216815F8010B4860E08C66
:101F90000028D5D14B4600224021204600F017FFF3
:101FA00008B10320DDE794F83900322806D084F820
:101FB000396000BF84F838700020D2E7222084F80E
:101FC0003900F7E70220CCE77047000000B5104861
:101FD00087B00E49016001210022C0E901121021E1
:101FE0004023C260C0E904138023C0E906320262C4
:101FF00042628262009101910291039104910591E4
:1020000006916946FEF7E4FD07B000BD400100A05F
:10201000E801002030B5304885B0016841F0040186
:102020000160016841F020010160016841F0800118
:102030000160016841F001010160016841F00201A5
:102040000160016841F040010160016841F0100148
:102050000160016841F0080101604FF401600090E7
:102060001E480024CDE9010469461D48FEF700FA28
:10207000032000900120CDE901041A4D694628464D
:102080000394FEF7F5F94FF4504000900220CDE99B
:1020900001040C20CDE9034069462846FEF7E8F923
:1020A0004FF40050CDE90004694628460294FEF73B
:1020B000DFF98020CDE9000469460B480294FEF761
:1020C000D7F94FF4F050CDE900046946074802946F
:1020D000FEF7CEF905B030BD3038024000001210D6
:1020E0000008024000040240000C024000180240B8
:1020F0000A4809494FF4007201604FF4827141604F
:1021000000218160C1600161C0E90512C161016205
:1021100041628162FFF734BA00300140580100206B
:102120000907090E002806DA00F00F0000F1E02090
:1021300080F8141D704700F1E02080F8001470470B
:102140000A6842624A688262D1E902231A43D1E9ED
:1021500004310B43C16A1A4321F0F7011143C162F4
:10216000002070470069C0B27047006800F00300AB
:102170007047000008B5024908440090006808BD97
:10218000142C014070B50DF1100C11439CE8700047
:102190002343194329434268314347F6FF639A4377
:1021A0000A434260002070BD032101600020704797
:1021B000D0F8800070470A688260D1E901231A4391
:1021C000D1E903310B43C1681A436FF30B0111438B
:1021D000C160002070470968C0F880100020704777
:1021E00070B5054600680E460024416B11F0450F9E
:1021F000FBD0416B490703D503210422826304E02D
:10220000416BC90703D001218163084670BDFFF708
:10221000A9FFB0422BD1296840F2FF50886300200B
:10222000FFF7A8FF284908424BD0002801DA1C20FC
:1022300070BD410001D5092070BD810001D50A2083
:1022400070BDC10001D50B2070BD010101D50C206E
:1022500070BD410101D50D2070BDC10101D50E2019
:1022600070BD010201D50F2070BD410201D51020C3
:1022700070BD810201D5112070BDC10201D51220AF
:1022800070BD010301D5132070BD410301D5142099
:1022900070BD810301D5152070BDC10301D5162085
:1022A00070BD010401D5172070BD410401D518206F
:1022B00070BD810401D5192070BD000701D51A2019
:1022C00070BD204670BD000008E0FFFD0146002003
:1022D00009684A6B12F0450FFBD04A6B520702D5D2
:1022E0000320042207E04A6BD20702D00120886352
:1022F000704740F2FF528A6370472DE9F04104466F
:10230000006815460E460027416B11F0450FFBD0C3
:10231000416B490703D503210422826304E0416B2A
:10232000C90704D0012181630846BDE8F081FFF7A9
:1023300019FFB04212D1216840F2FF50886300209B
:10234000FFF718FF10F4604F03D0810404D5132069
:10235000EBE7000C288007E0410401D51020E4E7FA
:10236000000401D50F20E0E73846DEE701462920CA
:1023700009684FF480324B6B13F0450F07D14B6B5C
:10238000A2F1010213F0450F01D1002AF7D14B6BE6
:10239000C3F3800302B113B10320042204E04A6BAB
:1023A000520602D5002040228A6370472DE9F04F83
:1023B00091B000250F46069508261021CDE9006151
:1023C000402107950446CDE9021508010490A8466E
:1023D00069462068FFF7EFFE10212046FFF700FF57
:1023E000002844D1A08C6946000400903720019059
:1023F0002068FFF7E0FE37212046FFF7F1FE0028B6
:1024000035D1401ECDE9080630204FF00209CDE954
:102410000A090120CDE90C80B246464608A9206889
:10242000FFF78EFE3320CDE9006069462068FFF794
:10243000C2FE33212046FFF7D3FE060017D10DF16F
:10244000180B40F22A682068416B11EA080F08D186
:10245000416B8902F7D5FFF7ABFE4BF825006D1CE9
:10246000F1E7416B090705D5C0F838A0042011B089
:10247000BDE8F08F416B890703D5C0F83890484616
:10248000F5E7416B890603D5202181630620EEE73D
:10249000416B890504D54FF4007181630720E6E79D
:1024A00040F2FF518163069800BA7860079800BA3D
:1024B00038603046DBE770B586B004460120ADF8E1
:1024C000140000252068FFF750FE58B3206A042846
:1024D0005DD000200221C0268DE843000390480211
:1024E000049069462068FFF766FE2046FFF7EEFE7F
:1024F000050018D1FFF73EFEA0630420FFF73AFE67
:10250000E0630820FFF736FE20640C20FFF732FE60
:102510006064206A48B1012807D0062805D0022847
:1025200003D011E0252006B070BD032001904020AB
:10253000029069462068FFF73EFE05AA0321204667
:10254000FFF7DBFE0500EED1206A04281FD0BDF89E
:1025500014006062000400900920CDE9010669467C
:102560002068FFF728FE2046FFF7B0FE0500DAD10D
:10257000FFF700FEA0620420FFF7FCFDE0620820E8
:10258000FFF7F8FD20630C20FFF7F4FD6063284699
:10259000C9E7000070B586B0044600260D460096D7
:1025A000A18C090401910D2102914021CDE903166E
:1025B0000801059001A92068FFF7FDFD2068416B27
:1025C00011F0450FFBD0416B490703D503210422CD
:1025D000826304E0416BC90704D00121816308468E
:1025E00006B070BDFFF7BEFD0D2838D1216840F25E
:1025F000FF5088630020FFF7BDFD0090C0F343202B
:1026000028703249009808425DD00098002801DA0D
:102610001C20E5E7400001D50920E1E70098800093
:1026200001D50A20DCE70098C00001D50B20D7E7D0
:102630000098000101D50C20D2E70098400101D597
:102640000D20CDE70098C00101D50E20C8E7009805
:10265000000201D50F20C3E70098400201D51020E9
:10266000BEE70098800201D51120B9E70098C002AA
:1026700001D51220B4E70098000301D51320AFE77D
:102680000098400301D51420AAE70098800301D5E3
:102690001520A5E70098C00301D51620A0E70098F3
:1026A000000401D517209BE70098400401D51820AD
:1026B00096E70098800401D5192091E7009800075B
:1026C00001D51A208CE730468AE7000008E0FFFDBC
:1026D0002DE9F04F87B0002504468DF80050564E86
:1026E000A846A94646F8A05F0068FFF75DFD0127F0
:1026F0003760BE02CDE9045601950295039501A904
:102700002068FFF758FD23680021B0015A6BC2F31F
:10271000C01204E05A6B401EC2F3C0120DD0002A52
:10272000F8D050B140F2FF50C3F838008DF80010D7
:102730009DF8000000287AD101E00321F6E74FF46C
:10274000D570019008204FF0400ACDE9020A01A996
:102750002068FFF730FD2046FFF708FE8DF80000E7
:102760009DF8000010B94FF0804927623727CDE966
:10277000015701A92068FFF71EFD37212046FFF70A
:102780002FFD8DF800009DF80000D8B34FE00397AF
:10279000CDE9015BCDE9045601A92068FFF70BFDE7
:1027A00037212046FFF71CFD8DF800009DF8000042
:1027B00048BB2249CDE9045649EA0100019029208D
:1027C000CDE9020701A92068FFF7F5FC2068002188
:1027D000426B12F0450FFBD0426B520702D503212A
:1027E000042201E040F2FF5282638DF800109DF850
:1027F000000040B90020FFF7BDFCC10F08F101083F
:1028000005D008E000E012E0BB465746BFE74FF6B0
:10281000FF718845BBD34FF6FF72904503D31B2051
:102820008DF8000003E0400001D5022020629DF8F1
:10283000000007B0BDE8F08F008025420000108046
:1028400030B589B000250446019528460295FFF76A
:1028500091FC800102D50E2009B030BD01A92046AF
:10286000FFF7A4FD0028F7D10298C0031FD5A08C64
:1028700003A900040390372004904020CDE905050A
:10288000000107902068FFF796FC37212046FFF7EC
:10289000A7FC0028E0D10620CDE9035003A9206859
:1028A000FFF789FC06212046FFF79AFCD4E7252094
:1028B000D2E730B589B00025044601952846029537
:1028C000FFF758FC800102D50E2009B030BD01A9E8
:1028D0002046FFF76BFD0028F7D10298400320D572
:1028E000A08C03A900040390372004904020CDE978
:1028F0000505000107902068FFF75DFC37212046A1
:10290000FFF76EFC0028E0D102200390062004901F
:1029100003A92068FFF74FFC06212046FFF760FC63
:10292000D3E72520D1E7000010B5064C0120207028
:10293000FDF77EFC18B9207820F001002070207887
:1029400010BD00007800002010B50C461149024669
:1029500096B009780120C90702D0032016B010BD37
:10296000A2B1012A07D04FF40071022A0DD0032A28
:102970000ED00420F2E76846FDF74EFCDDE91201B7
:10298000400A40EAC150206000E021800020E5E7D5
:102990002160E3E7780000201CB54FF40073CDE917
:1029A000003200244A022346FDF76AFC00B10124EC
:1029B00020461CBD10B5064C01202070FDF732FCEE
:1029C00018B9207820F001002070207810BD000098
:1029D000780000201CB54FF40073CDE900320024CC
:1029E0004A022346FDF75CFC00B1012420461CBDD1
:1029F0002DE9F0471D4690460E460446FDF720FEA1
:102A000007465FEA08004FF000084FF4005A4FF005
:102A1000010926D034E0681C23D025B1FDF710FE53
:102A2000C01BA8421DD92068416821F0E001416027
:102A30002068016821F040010160A06A504509D179
:102A40002068016821F4005101602068016841F4A8
:102A50000051016084F8519084F850800320BDE853
:102A6000F0872068806836EA0000D4D10DE0681C49
:102A700006D0002DD7D0FDF7E3FDC01BA842D2D869
:102A80002068806836EA0000F1D00020E7E710B542
:102A9000FDF700FEBDE81040FFF7D9B800B58DB0D6
:102AA0000220009001200390062004906846FDF764
:102AB000F3FE0DB000BD00001048016841F4700144
:102AC00001600F48016841F0010101600C4A0021DA
:102AD0000832116002680B4B1A400260031D0A4A5B
:102AE0001A60026822F48022026005480C300160FE
:102AF00002495806803908607047000088ED00E000
:102B000000380240FFFFF6FE1030002410B590F8A8
:102B10003910222903D0322901D0022010BD81684A
:102B2000B1F5805F11D00169002901681FD04968A3
:102B300001F07F03816A4A1C82620B70C18D491EBD
:102B40000904090CC18518D030E00269816A002AA5
:102B50000268526805D0D2B20A80816A491C81623B
:102B6000ECE7C2F308020A80816A891CF7E74A6829
:102B7000816A4B1C83620A70E0E70168CA6822F030
:102B80002002CA6090F83910322911D00168CA6851
:102B900022F48072CA6001684A6922F001024A6127
:102BA0005FF0010180F83910FFF7A7F9002010BD90
:102BB0001221F7E72DE9F04101680446086920F485
:102BC0004052E068104308612268D06849F20C6105
:102BD00088432369A168E569194363692B43194355
:102BE0000143D1602168486920F44072A069104314
:102BF0004861E26964263225B2F5004F49494A48E6
:102C000022681DD0824201D08A426AD1FDF7EEFDD2
:102C100000EBC00101EB00106168B0468900B0FB19
:102C2000F1F1B1FBF8F6FDF7E1FD00EBC00101EBBE
:102C3000001061688900B0FBF1F7FDF7D7FD69E08E
:102C4000824201D08A4219D1FDF7D0FD00EBC001CC
:102C500001EB00106168B0464900B0FBF1F1B1FB37
:102C6000F8F6FDF7C3FD00EBC00101EB0010616851
:102C70004900B0FBF1F7FDF7B9FD18E0FDF7A0FD45
:102C800000EBC00101EB00106168B0464900B0FBE9
:102C9000F1F1B1FBF8F6FDF793FD00EBC00101EB9C
:102CA000001061684900B0FBF1F7FDF789FD00EB0A
:102CB000C00101EB001061685FEA4101B0FBF1F176
:102CC000B1FBF8F06FF01801484307EB800005EB0B
:102CD0000011B1FBF8F0216866F31F108860BDE8B1
:102CE000F081FDF76DFD00EBC00101EB00106168A4
:102CF000B0468900B0FBF1F1B1FBF8F6FDF760FDDD
:102D000000EBC00101EB001061688900B0FBF1F736
:102D1000FDF756FD00EBC00101EB00106168890072
:102D2000CCE70000001401400010014010B504463B
:102D300090F83900122803D0322801D0022010BDAB
:102D4000A068B0F5805F206A0BD0411C2162216829
:102D500000784860E08C401E0004000CE0840ED037
:102D600033E000882168C0F308004860206900282B
:102D7000206A02D0401C2062ECE7801CFBE7206840
:102D8000C16821F08001C16094F83900322817D061
:102D90002068C16821F48071C1602068416921F018
:102DA000010141615FF0010084F8390045F2F05300
:102DB00000224021204600F00AF818B1032010BD7F
:102DC0002220F1E72046FFF7FFF8002010BD2DE993
:102DD000F0471D4690460E460446FDF731FC074677
:102DE0005FEA08004FF000094FF0010808D030E01A
:102DF000681C05D095B1FDF723FCC01BA8420DD877
:102E00002068006836EA0000F2D127E0681C20D074
:102E100025B1FDF715FCC01BA8421AD92068C1686E
:102E200021F08001C1602068C16821F02001C160EB
:102E30002068C16821F48071C1602068416921F077
:102E40000101416184F8398084F838900320BDE89D
:102E5000F0872068006836EA0000D7D00020F6E747
:102E600070B51F4D1F4801242C7001680A230822E9
:102E70001D48FFF743F81C480068C068800627D546
:102E80002C700A23012219491748FEF79BFF184DA1
:102E9000164E0A2328780122401C28703446711CE3
:102EA0001148FEF78FFF2878401C28706078114C7D
:102EB0000AE02878012231180B48FEF7E9FF28784C
:102EC000401C28702078401E207010F0FF0FF0D1B9
:102ED0002520FDF713FCBDE870400348FEF7BCBE9B
:102EE0000100002054000020AC0100201C02002042
:102EF000500000205100002002E008C8121F08C145
:102F0000002AFAD170477047002001E001C1121F6A
:102F1000002AFBD1704700002DE9FF5F05460EA88F
:102F2000314C90E8C00320688A4693466FF0EC016C
:102F300000F5841000F07AF90421206800F0DEF931
:102F40002060294600F5841000F070F90221206805
:102F500000F0D4F92060514600F5841000F066F9C5
:102F60000221206800F0CAF92060594600F584105B
:102F700000F05CF90221206800F0C0F9206000F543
:102F80008410039900F052F90221206800F0B6F98C
:102F90002060314600F5841000F048F902212068D5
:102FA00000F0ACF92060394600F5841000F03EF9DD
:102FB0000221206800F0A2F92060414600F584104B
:102FC00000F034F90221206800F098F920604946A9
:102FD00000F5841000F02AF90221206800F08EF933
:102FE0002060BDE8FF9F0000180000202DE9F04799
:102FF000274C06460F462068994690466FF0F3012D
:10300000089D00F5841000F011F90421206800F0FB
:1030100075F92060314600F5841000F0D1F80221E6
:10302000206800F06BF92060394600F5841000F04C
:10303000C7F80221206800F061F92060414600F5E0
:10304000841000F0BDF80221206800F057F92060DC
:10305000494600F5841000F0B3F80221206800F022
:103060004DF9002620600BE02068A95D00F5841072
:1030700000F0A6F80121206800F040F9761C2060DD
:103080002846FDF7AFF8B042EED2BDE8F087000069
:103090001800002011B581B00020104C8DF8000000
:1030A000024602212046FDF7C5FA0023012201A9AC
:1030B0000B48FEF7BCFB0023012269460848FEF7D7
:1030C000B6FB0023012269460548FEF7B0FB01224A
:1030D00002212046FDF7AEFA1CBD000000040240AC
:1030E00058010020FEB5010C8DF80210010A8DF880
:1030F0000110154D8DF80000002202212846FDF731
:1031000099FA02246E463119002301220F48FEF776
:103110008EFB641EF7D50023012202A90B48FEF79F
:1031200086FB002401AE3119002301220748FEF777
:1031300093FA641C022CF6D3012202212846FDF7E3
:1031400079FABDF80400FEBD0004024058010020D9
:103150007FB500218DF808108DF80C10010C8DF84A
:103160000210010A8DF80110134E8DF800000022A4
:1031700002213046FDF75EFA02246D46291900232C
:1031800001220E48FEF753FB641EF7D500230122EF
:1031900003A90A48FEF74BFB0023012202A90748B6
:1031A000FEF75AFA012202213046FDF743FA9DF854
:1031B000080004B070BD0000000402405801002067
:1031C0007CB5020C42F080028DF80220020A8DF8D4
:1031D00001208DF80000080A8DF80500114D8DF8CA
:1031E0000410002202212846FDF724FA02246E462C
:1031F0003119002301220C48FEF719FB641EF7D594
:10320000002401AE3119002301220748FEF70FFB0D
:10321000641C022CF6D3012202212846FDF70AFA8B
:103220007CBD000000040240580100207CB5020C67
:1032300042F080028DF80620020A8DF805208DF8F4
:103240000400080E8DF80300080C8DF80200080A2F
:103250008DF80100114D8DF8001000220221284642
:10326000FDF7E8F9022401AE3119002301220C48D0
:10327000FEF7DDFA641EF7D500246E4631190023EF
:1032800001220748FEF7D3FA641C042CF6D301226E
:1032900002212846FDF7CEF97CBD00000004024063
:1032A0005801002073B582B0010C41F080018DF807
:1032B0000210010A8DF801100E4E8DF80000002258
:1032C00002213046FDF7B6F902246D462919002384
:1032D00001220948FEF7ABFA641EF7D5002301224C
:1032E00003A90548FEF7A3FA012202213046FDF7A3
:1032F000A1F97FBD00040240580100200844B0F548
:10330000805F01D3A0F58050704700001FB5FDF726
:10331000C9F9FFF7C3FB0720FDF726FA0022114683
:10332000501EFDF701FA002211462520FDF7FCF999
:103330002520FDF7EEF9FEF76DFEFEF747FEDE48AD
:103340004FF00009DB49C0E9001932214D46816088
:10335000FDF77CF9D848D9491030C0E900158560DF
:10336000C560456100F160018561FDF708FEFEF76B
:10337000BFFED448D2490C2601604FF41651C0E973
:103380000115C560C0E904568561C561FEF7C9FC39
:10339000CD4C4FF4F070A0624FF48870E0624FF4AF
:1033A000097020632B20C4E90D052920E0634FF448
:1033B0009270C4E910060A26C4E91256052060710D
:1033C0000120A571C14DE071024601462846FDF776
:1033D00031F9012202212846FDF72CF91420FCF7CF
:1033E000DAFF002201212846FDF724F91420FCF71A
:1033F000D2FF012211462846FDF71CF91420FCF7E4
:10340000CAFF4420FFF746FE0520FCF7C4FF00205A
:10341000FFF740FE0520FCF7BEFF6220FFF73AFEF3
:103420000520FCF7B8FFAA48FFF792FE7C2800D0E1
:10343000FEE7DFF89C82002108F16C084046FFF7A8
:1034400031FFA34F0021C4373846FFF72BFFA048B8
:10345000A16A3030FFF7B4FE9D48216B2830FFF79A
:10346000AFFE9B48616B2C30FFF7AAFE9848A16B1A
:103470003430FFF7A5FE9648E16B3830FFF7A0FE29
:103480009348E16A4430FFF79BFE9148216C3C3041
:10349000FFF796FE8E48616C4030FFF791FE8C4836
:1034A000A16C4830FFF78CFE8948E16C4C30FFF787
:1034B00087FE8748A1796030FFF7F4FEE179A8F133
:1034C0000400FFF7EFFE82480021F030FFF7EAFE2C
:1034D00000218048FFF774FE7D4800217C30FFF713
:1034E000E1FE7B4800218030FFF7DCFE79484FF495
:1034F000C0418038FFF764FE4FF48015690128460B
:10350000E560FFF793FEE0687349001DE060FFF798
:103510008DFEE0680021001DE060FFF787FE6C482B
:1035200002215030FFF782FEE5606A4D743D284667
:10353000FFF70EFE40F0800121722846FFF7B2FE31
:1035400061794046FFF7AEFE0025E9B23846FFF745
:10355000A9FE0A20FCF71FFF6D1C802DF5DD5A49DE
:103560005E482431FCF7ACFEDFF868B12071ABF1A6
:10357000200B4FF4C06A0BF104085846FFF7B2FD68
:1035800020614046FFF7AEFD606121698842F4D1B9
:10359000A0616FF0FF0100F58410FFF747FE0421E2
:1035A000A069FFF7ABFEA0614FF0007100F5841039
:1035B000FFF73CFE0421A069FFF7A0FEA061464989
:1035C00000F58410FFF732FE0421A069FFF796FE94
:1035D000A0612178FA20CDE902100225871DCDE9EE
:1035E00000653B463C228E217220FFF795FCA08BA4
:1035F000082241F6583180B2CDE90025CDE902011B
:103600003B463C228E2140F26510FFF785FC34A03A
:103610000090554653461C221621F020FFF7E6FC89
:10362000607838B131A000902B461C22E621F320AF
:10363000FFF7DCFCA069002100F58410FFF7F6FD20
:103640000421A069FFF75AFEA0616FF0FE0100F5AA
:103650008410FFF7EBFD0421A069FFF74FFE014640
:10366000A0614046FFF7ACFDE0696430E0613220C4
:10367000FCF791FE2078FA2805D2401C2070E06902
:103680006438E06179E784F800900A2309220D4844
:10369000216AFEF733FC0C490A230122C91C0948A0
:1036A000FEF72CFC08490A230122891C0548FEF775
:1036B00025FC62E70030004090000020002C014013
:1036C00000100140AC010020000000200004024076
:1036D0000024100004251000070000267C000020B4
:1036E000494255534D4F4E49544F52005243562173
:1036F00000000000000000000102030401020304B6
:10370000060708094F5645525350454544000000EE
:103710005245434549564544000000003C370008E7
:103720000000002090000000F82E0008CC370008B0
:1037300090000020B0050000082F000800000D0ACE
:103740000000000000000000000010000000000069
:10375000000000000000000084030000043700089F
:103760000000000000000000000000000000000059
:103770000000000000000000000000000000000049
:103780000000000000000000000000000000000039
:103790001037000800000000000000000024F400C2
:1037A00000000000000000000102030406070809F1
:1037B000000000000100000029290008B5290008C8
:0C37C00099290008D529000849290008B3
:04000005080001AD41
:00000001FF
