:020000040800F2
:1000000080060020C1010008C9010008CB010008DA
:10001000CD010008CF010008D10100080000000058
:10002000000000000000000000000000D3010008F4
:10003000D501000800000000D7010008673700085C
:10004000DB010008DB010008DB010008DB01000820
:10005000DB010008DB010008DB010008DB01000810
:10006000DB010008DB010008DB010008DB01000800
:10007000DB010008DB010008DB010008DB010008F0
:10008000DB010008DB010008DB010008DB010008E0
:10009000DB010008DB010008DB010008DB010008D0
:1000A000DB010008DB010008DB010008DB010008C0
:1000B000DB010008DB010008DB010008DB010008B0
:1000C000DB010008DB010008DB010008DB010008A0
:1000D000DB010008D93C0008DB010008DB01000857
:1000E000DB010008DB010008DB010008DB01000880
:1000F000DB010008DB010008DB010008DB01000870
:10010000DB010008DB010008DB010008DB0100085F
:10011000DB010008DB010008DB010008DB0100084F
:10012000DB010008DB010008DB010008DB0100083F
:10013000DB010008DB010008DB010008DB0100082F
:10014000DB010008DB010008DB010008DB0100081F
:10015000DB010008DB010008DB010008DB0100080F
:10016000DB010008DB010008DB010008DB010008FF
:10017000DB010008DB010008DB01000800000000D3
:10018000DB010008DB010008DB010008DB010008DF
:10019000DB010008DB010008DB010008DB010008CF
:1001A000DB010008DB010008DB010008DFF80CD0F0
:1001B00000F070F800480047154500088006002050
:1001C0000648804706480047FEE7FEE7FEE7FEE7F1
:1001D000FEE7FEE7FEE7FEE7FEE7FEE7E53700089D
:1001E000AD0100082DE9F05F0546002092469B46D0
:1001F00088460646814640241BE02846414647463D
:10020000224600F036F853465A46C01A914110D3A0
:1002100011461846224600F01DF82D1A67EB01081A
:100220004F4622460120002100F014F817EB000988
:100230004E41201EA4F10104DFDC484631462A4627
:100240004346BDE8F09F421C10F8011B0029FBD17A
:10025000801A7047202A04DB203A00FA02F10020BD
:1002600070479140C2F1200320FA03F319439040F4
:100270007047202A04DB203A21FA02F0002170475F
:1002800021FA02F3D040C2F12002914008431946FE
:1002900070470000064C074D06E0E06840F001039F
:1002A00094E8070098471034AC42F6D3FFF782FF7A
:1002B0006C4B00088C4B000810B5044621460248E0
:1002C00000F0FEFF10BD0000B800002010B502488D
:1002D00000F0E5FF10BD0000B80000201FB50024AD
:1002E00000F02CF8012802D0012004B010BD114903
:1002F000114801F047F90446CCB969460E4800F0B0
:1003000077FF9DF80000042808D141020A4801F057
:1003100082FB08B1012409E0002407E0002106481F
:1003200001F079FB08B1012400E0002400BF204661
:10033000DBE7000018010020B800002008B501200C
:1003400000909DF8000008BD2DE9FC4104461546CB
:100350001E46DDE908782A46334621460548CDE9A0
:10036000007801F08FF910B10120BDE8FC81002078
:10037000FBE70000B80000202DE9FC4104461546CB
:100380001E46DDE908782A46334621460548CDE970
:10039000007801F07FFB10B10120BDE8FC81002056
:1003A000FBE70000B800002070B5024601240023DE
:1003B0000F48007A012818DC00200D4D2D7A0C4ED4
:1003C00070553046057A001D40F82520051F287A13
:1003D000451C3572034603F1300008703A2048701E
:1003E0002F2088700020C8700024204670BD0000B7
:1003F0007402002030B5024600230024086801285A
:1004000012D0D1E901052843CD6828430D6928435E
:100410004D6928438D692843CD6928430D6A2843D7
:100420004D6A2843106013E0D1E9070528434D6A5F
:1004300040EA0503D1E901052843CD6828430D6949
:1004400028434D6928438D6940EA050413605460D0
:10045000002030BD70B5034600240025012A1BD0C2
:100460000868401E4E68761E40EA06168868401EE0
:1004700046EA0026C868401E46EA0036088A401E42
:1004800046EA0046888A401E46EA0056087E401E1C
:1004900046EA006098601AE00868401E4E68761EC2
:1004A00040EA06168868401E46EA0026088A401E72
:1004B00046EA0046087E401E46EA0064C868401EC0
:1004C0000603888A401E46EA0055DC609D600020D5
:1004D00070BD31B5002400F087F9044600BF00F07C
:1004E00083F9001B00998842F9D338BD00B585B067
:1004F0003048006808B105B000BD01202D490860F2
:100500002D48006840F001002B4908604FF63F007D
:100510000090022001900020029003900C20049093
:100520006946264800F056F801200090022001900C
:100530000020029003900C2004906946204800F0AF
:1005400049F848F2331000900220019000200290F8
:1005500003900C20049069461A4800F03BF84FF6CF
:1005600083700090022001900020029003900C20E4
:1005700004906946144800F02DF84CF20370009086
:10058000022001900020029003900C200490694604
:100590000E4800F01FF8602000900220019000201B
:1005A000029003900C2004906946094800F012F86C
:1005B00000BFA0E77000002038380240001402405D
:1005C000000802400018024000100240000C0240E7
:1005D00000040240F0B502460B460025002400202E
:1005E0000021DCE0012606FA01F51E6806EA050492
:1005F000AC426ED15E68022E02D05E68122E13D11C
:10060000CF0802F1200656F827004E07F70E0F26F6
:10061000BE40B0434F07FF0E1E69BE403043CF08B7
:1006200002F1200646F8270010684F000326BE405E
:10063000B0431E7906F003064F00BE403043106001
:100640005E68012E08D05E68022E05D05E68112E0D
:1006500002D05E68122E13D190684F000326BE4070
:10066000B0434F00DE68BE403043906050680126C2
:100670008E40B0431E79C6F300168E403043506062
:10068000D0684F000326BE40B0434F009E68BE4076
:100690003043D0605E6806F08056B6F1805F7DD151
:1006A000414E366846F480463F4F3E603F4E8F08CD
:1006B00056F827008E07370F0F26BE40B0433C4E3A
:1006C000B24201D100262EE03A4EB24202D10126BA
:1006D00029E063E0384EB24201D1022623E0374ED2
:1006E000B24201D103261EE0354EB24201D10426AA
:1006F00019E0344EB24201D1052614E0324EB24226
:1007000001D106260FE0314EB24201D107260AE0A0
:100710002F4EB24201D1082605E02E4EB24201D141
:10072000092600E00A268F073F0FBE4030431F4EC8
:100730008F0846F82700284E3068A0435E6806F40C
:100740008036B6F5803F00D12043234E3060361D01
:100750003068A0435E6806F40036B6F5003F00D16D
:1007600020431D4E361D3060361D3068A0435E6844
:1007700006F48016B6F5801F00D12043164E0836C9
:100780003060361D3068A0435E6806F40016B6F58A
:10079000001F00D12043104E0C363060491C102938
:1007A000FFF420AFF0BD000044380240083801409B
:1007B000000002400004024000080240000C024019
:1007C000001002400014024000180240001C0240C9
:1007D0000020024000240240003C01400AB1018395
:1007E00000E0418370470000014800687047000046
:1007F0008C00002010B504460CB9012010BD607BB0
:1008000010B9204600F01AF80220607345F25550E6
:10081000216808602068406820F00700616808438C
:1008200021684860206880686FF30B00A168084366
:1008300021688860012060730020DFE770470000B6
:1008400002480068401C0149086070478C00002085
:1008500010B50D48006840F400700B490860084668
:10086000006840F4806008600846006840F48070CA
:100870000860032000F078F8002000F007F800F08E
:1008800017F8002010BD0000003C024070B504467F
:1008900000F0E4F94FF47A71B0FBF1F5284601F06D
:1008A00064FE00222146501E00F01FF8002070BD9B
:1008B0007047000000BF00F01F0201219140034A71
:1008C000430942F8231000BF7047000080E200E0B7
:1008D00000BF00F01F02012191404209920002F185
:1008E000E022C2F8001100BF70472DE9F05F80469A
:1008F0000D461646002702F043F8074639462A46B9
:10090000334601F00700C0F1070ABAF1040F02D91B
:100910004FF0040A01E0C0F1070AD14600F1040AD1
:10092000BAF1070F02D24FF0000A01E0A0F1030A6A
:10093000D4464FF0010A0AFA09FAAAF1010A0AEAB2
:10094000020A0AFA0CFA4FF0010B0BFA0CFBABF19E
:10095000010B0BEA030B4AEA0B042146404602F066
:1009600017F8BDE8F09F000000BF00F00702064B3B
:1009700019684FF6FF031940044B0B4343EA022169
:10098000014B196000BF70470CED00E00000FA0554
:1009900010B500241948006840F0805017490860DD
:1009A000012017490864FFF71FFF044607E0FFF71F
:1009B0001BFF001BB0F57A7F01D9032010BD114841
:1009C000406800F48030B0F5803FF0D101200C4940
:1009D0004864FFF709FF044607E0FFF705FF001B27
:1009E000B0F57A7F01D90320E8E70648406800F4B3
:1009F0000030B0F5003FF0D10020DFE74038024082
:100A000000000E420070004070B504460D460026FE
:100A10009048006800F00F00A8427ED28D490D700A
:100A20000846006800F00F00A84201D0012070BD08
:100A3000207800F00200022807D18748006820F0E3
:100A4000F000A168084384490860207800F00100A4
:100A500000283BD06068012807D17F48083800682B
:100A6000C0F34040A0B90120E1E76068022807D147
:100A7000794808380068C0F3406048B90120D6E7DB
:100A8000754808380068C0F3400008B90120CEE777
:100A90007148006820F00300616808436E490860EF
:100AA000FFF7A2FE06466068012810D108E0FFF7B4
:100AB0009BFE801B41F28831884201D90320B6E7B2
:100AC0006548006800F00C000428F0D1A2E06068DE
:100AD000022810D108E0FFF787FE801B41F2883121
:100AE000884201D90320A2E75B48006800F00C00AF
:100AF0000828F0D18EE009E0FFF776FE801B41F276
:100B00008831884202D9032091E706E05248006804
:100B100000F00C000028EFD17CE0207800F002000B
:100B2000022807D14C48006820F0F000A168084373
:100B300049490860207800F00100002860D0606812
:100B4000012807D1444808380068C0F34040A0B9E4
:100B500001206CE76068022807D13F480838006828
:100B6000C0F3406048B9012061E73B48083800689D
:100B7000C0F3400008B9012059E73748006820F069
:100B800003006168084334490860FFF72DFE0646FC
:100B90006068012810D108E0FFF726FE801B41F2B3
:100BA0008831884201D9032041E72B48006800F0D2
:100BB0000C000428F0D123E06068022810D108E07E
:100BC000FFF712FE801B41F28831884201D90320D1
:100BD0002DE72148006800F00C000828F0D10FE054
:100BE00008E0FFF701FE801B41F28831884201D9FD
:100BF00003201CE71848006800F00C000028F0D122
:100C000014490D700846006800F00F00A84201D09A
:100C100001200CE7207800F00400042807D10E48DA
:100C2000006820F4E050E16808430B490860207830
:100C300000F00800082808D10748006820F4604048
:100C4000216940EAC100044908600020FFF71EFE48
:100C50000020ECE6003C02400838024000B500F0FD
:100C600045F80949096801F0F001F02292FAA2F270
:100C7000B2FA82F2D140054A515CC840044908608A
:100C80000846006800BD0000083802405C4B0008C0
:100C90007800002000B5FFF7E1FF0749096801F47B
:100CA000E0514FF4E05292FAA2F2B2FA82F2D1404D
:100CB000024A515CC84000BD083802405C4B000845
:100CC00000B5FFF7CBFF0749096801F460414FF415
:100CD000604292FAA2F2B2FA82F2D140024A515C28
:100CE000C84000BD083802405C4B000870B50021C8
:100CF0000022002300202B4C246804F00C0424B1B3
:100D0000042C04D0082C48D103E0274847E02748AA
:100D100045E0244C241F246804F03F01214C241F8B
:100D2000246804F480044FF4800595FAA5F5B5FA1B
:100D300085F5EC4084B11D4CB4FBF1F5194C241F32
:100D4000246847F6C076344096FAA6F6B6FA86F6D8
:100D5000F44005FB04F20FE0134CB4FBF1F5114C29
:100D6000241F246847F6C076344096FAA6F6B6FAF1
:100D700086F6F44005FB04F20A4C241F246804F4B0
:100D800040344FF4403595FAA5F5B5FA85F5EC40B9
:100D9000641C6300B2FBF3F001E0034800BF00BF36
:100DA00070BD0000083802400024F40000127A00F0
:100DB00070B504460025207800F00100002867D0B7
:100DC000F648006800F00C0004280DD0F3480068D5
:100DD00000F00C00082813D1F048001F006800F450
:100DE0008000B0F5800F0BD1EC4808380068C0F3E4
:100DF000404000284CD06068012849D0012070BDD7
:100E00000020E649891F0870FFF7EEFC054608E060
:100E1000FFF7EAFC401B41F28831884201D90320E8
:100E2000EDE7DE4808380068C0F340400028EFD105
:100E30002079DA49891F08706068012814D1FFF70A
:100E4000D3FC054608E0FFF7CFFC401B41F2883198
:100E5000884201D90320D2E7D04808380068C0F39F
:100E600040400028EFD013E0FFF7BEFC054608E045
:100E7000FFF7BAFC401B41F28831884201D90320B8
:100E8000BDE7C64808380068C0F340400028EFD1ED
:100E9000207800F00200022869D1C048006800F004
:100EA0000C0058B1BD48006800F00C00082821D1A2
:100EB000BA48001F006800F48000D8B9B748083865
:100EC0000068C0F3400020B1E068012801D0012093
:100ED00095E7B2480838006820F0F800F82292FA46
:100EE000A2F2B2FA82F2216991400843AB49083973
:100EF00008603CE0E06828B30120A9490860FFF7DA
:100F000073FC054606E0FFF76FFC401B642801D91F
:100F1000032074E7A14808380068C0F340000028A7
:100F2000F1D09E480838006820F0F800F82292FAC4
:100F3000A2F2B2FA82F22169914008439749083936
:100F4000086014E0002096490860FFF74DFC054654
:100F500006E0FFF749FC401B642801D903204EE757
:100F60008E4808380068C0F340000028F1D120788E
:100F700000F0080008282CD16069A8B10120894937
:100F80000860FFF731FC054606E0FFF72DFC401B2B
:100F9000642801D9032032E780486C300068C0F330
:100FA00040000028F1D014E000207E490860FFF7DF
:100FB0001BFC054606E0FFF717FC401B642801D91F
:100FC00003201CE775486C300068C0F3400000281F
:100FD000F1D1207800F00400042866D16F48383041
:100FE000006840F080506D49383108606E480068F4
:100FF00040F480706C490860FFF7F6FB054606E098
:10100000FFF7F2FB401B642801D90320F7E666488E
:10101000006800F480700028F2D000205F49683139
:101020000870FFF7E1FB054608E0FFF7DDFB401B1A
:1010300041F28831884201D90320E0E65748683000
:101040000068C0F340000028EFD1207A534968318E
:101050000870A068012814D1FFF7C6FB054608E018
:10106000FFF7C2FB401B41F28831884201D90320BF
:10107000C5E64A4868300068C0F340000028EFD059
:1010800013E0FFF7B1FB054608E0FFF7ADFB401B9F
:1010900041F28831884201D90320B0E63F486830E8
:1010A0000068C0F340000028EFD1A069F0B33B48CE
:1010B000006800F00C0008286BD0A069022852D10B
:1010C000002037490866FFF78FFB054606E0FFF76B
:1010D0008BFB401B642801D9032090E62F48083879
:1010E0000068C0F340600028F1D1206A40F0005051
:1010F00047F6C07292FAA2F2B2FA82F2616A9140A5
:1011000008430122A16AC2EB51014FF4403292FA26
:10111000A2F2B2FA82F291400843E16908434FF02B
:10112000706292FAA2F2B2FA82F200E033E0E16A6F
:10113000914008431949091F0860012018490866B1
:10114000FFF752FB054606E0FFF74EFB401B642805
:1011500001D9032053E6114808380068C0F3406005
:101160000028F1D017E000200D490866FFF73CFB8E
:10117000054606E0FFF738FB401B642801D9032031
:101180003DE6064808380068C0F340600028F1D109
:1011900001E0012033E6002031E60000083802407B
:1011A00000004742800E47420070004070B5044680
:1011B0000D460CB9012070BD94F82C0010B92046E2
:1011C00000F011F8022084F82C00211D2068FFF7A0
:1011D00011F92946D4E90002FFF73CF9012084F80F
:1011E0002C000020E7E710B50446FFF77FF910BD9B
:1011F000F0B591B007460D460026002401A93846F7
:1012000000F038FB064616B1304611B0F0BD01982B
:10121000C0F381142C700198C0F340146C700398D3
:10122000C4B22002C0B268800498C4B26888204367
:1012300068800598C4B22006C0B268600698C4B23F
:1012400068682104C9B2084368600798C4B2686836
:101250002102C9B2084368600898C4B26868204394
:1012600068600998C4B22C720A98C4B26C720B9868
:10127000C0F30314AC720C98C4B22002C0B2A881AF
:101280000D98C4B2A8892043A8810E98C0F38504A4
:10129000AC730E9800F00304EC733046B5E770B5FC
:1012A00005460424284601F049FE0446042C01D1D9
:1012B000002070BDFF2C01D10220FAE70120F8E7E1
:1012C0002DE9F04103460020002293F8204081F8E8
:1012D00056409C8CA1F854409C6A220E94090C70D4
:1012E000C2F383044C7002F003048C709C6AC4F354
:1012F0000742CA701C8DC4F307220A7193F8282094
:101300004A71DC6A220E4FF6FF7404EA0214CC80A4
:10131000DC6AC4F30742CC8844EA1214CC8002F0A1
:101320000F040C729C8DC4F30722D4094C72C2F3D3
:1013300080148C72C2F34014CC72C2F300140C738C
:1013400000244C731C6A14B11C6A012C4CD1940704
:10135000240D0C612C24E25C0C6944EA82040C61CB
:101360001C6B220E0C6944EA92140C61C2F3C20495
:101370000C7502F007044C751C6BC4F3074254094A
:101380008C75C2F38204CC759407640F0C761C8EA6
:10139000C4F307220C7E44EAD2140C760C69641C58
:1013A0000025C1E912450C7ED1E91257A41C012683
:1013B00006FA04F4E617A5FB04C807FB048405FB42
:1013C0000644C1E912C40D7A0124AC400C65002525
:1013D000D1E912670C6DA6FB04C807FB048406FB69
:1013E0000544C1E912C421E01C6A022C1DD12C2441
:1013F000E25C9406A40A0C611C6B220E0C6944EAA0
:1014000002240C611C6BC4F307420C6914430C6189
:101410001C8EC4F307220C69641CE4040025C1E996
:1014200012454FF400740C6500E02920C2F38014CB
:1014300001F8194F9406640E4C703024E25C4C782D
:1014400044EAD2144C7002F07F048C705C6B220E64
:10145000D409CC70C2F341140C71C2F382044C71F4
:101460009407240F8C715C6BC4F307428C7944EAB7
:1014700092148C71C2F34014CC7100240C7202F0EF
:1014800001044C729C8EC4F30722D4098C72C2F3FF
:101490008014CC72C2F340140C73C2F300144C736A
:1014A000C2F381048C7302F00304CC733424E25C35
:1014B00054080C7401244C749C6B220ECA741939A4
:1014C0009C6BC4F307424FF6FF7404EA0225CD85F6
:1014D0001C8FC4F30722CC8D1443CC8593F838209D
:1014E00015060D63DC6B220E0C6B44EA02450D639E
:1014F000DC6BC4F307420C6B44EA02250D639C8F3E
:10150000C4F307220C6B14430C633C24E25C3424C8
:1015100062541C6C220E352462541C6CC4F30742C6
:1015200015068D634024E45AC4F307228C6B44EA09
:1015300002458D634024E25C8C6B44EA02258D6396
:101540005C6C220E8C6B14438C635C6CC4F307429E
:101550003C24645C44EA12143C256C541407250DA9
:10156000CD874424E45AC4F30722CC8F1443CC879C
:101570004424E25C55084024655401254124655407
:10158000BDE8F08130B58BB004460D4600200A90CE
:10159000204600F045F80020049005900690079042
:1015A00008907620099007A807C88DE807002068F2
:1015B00004A90EC901F02CFA204601F035FE0A906C
:1015C0009DF8280018B19DF828000BB030BD2046CA
:1015D00001F0C3FC0A909DF8280010B19DF8280086
:1015E000F3E729462046FFF76BFE0A909DF8280096
:1015F00040B9B5F8540001040A460023204601F022
:10160000C3FE0A90D4E90412A069CDE90012029049
:1016100094E80F0001F0FCF99DF82800D5E70000E0
:1016200010B586B0044613492068884220D112487C
:10163000006840F40060104908604FF48850019041
:10164000022002900020039004900C20059001A934
:101650000A48FEF7BFFF04200190022002900020FC
:10166000039004900C20059001A90548FEF7B2FFF5
:1016700006B010BD002C0140443802400008024072
:10168000000C02402DE9FF5F8CB0044617469846D7
:10169000DDE91AB94FF0000A00250D9E00202168EF
:1016A000C862206A022809D14FF4007B020200239D
:1016B00038464146FEF796FD07468846CDF81CB0F1
:1016C000102008904020099000200A904FF480607C
:1016D0000B9007A9206801F0BEF91021204601F007
:1016E000EFF98246BAF1000F03D0504610B0BDE8C2
:1016F000F09F4FF0FF30019009FB0BF0029090201B
:10170000039002200490002005900120069001A97A
:10171000206801F051F9B9F1010F02D912200890A7
:1017200001E011200890079707A9206801F093F9BC
:10173000B9F1010F22D91221204601F0C1F98246E8
:10174000BAF1000F01D05046D0E70FE02068406B9F
:1017500000F4004050B1002505E0206801F077F961
:1017600046F825006D1C082DF7D320362068406B05
:1017700040F22A3108400028E8D021E0112120461B
:1017800001F09EF98246BAF1000F01D05046ADE754
:101790000FE02068406B00F4004050B1002505E0E8
:1017A000206801F054F946F825006D1C082DF7D388
:1017B00020362068406B40F22A6108400028E8D0BB
:1017C0002068406B00F4807070B1B9F1010F0BD943
:1017D000206A28B1206A012802D0206A022803D199
:1017E000204600F0FDF882462068406B00F00800BB
:1017F00030B10820216888634FF0040A504675E72D
:101800002068406B00F0020028B102202168886344
:10181000824650466AE72068406B00F0200030B1F5
:101820002020216888634FF0060A50465EE7206852
:10183000406B00F4007038B14FF400702168886389
:101840004FF0070A504651E74FF0FF3505E020689A
:1018500001F0FDF83060361D6D1E2068406B00F40D
:10186000001008B1002DF2D140F2FF5021688863CA
:1018700050463BE7F0B58BB004460D4600270026E6
:10188000002001F0B9F800F00070B0F1007F03D142
:101890000E2738460BB0F0BD402006901020079070
:1018A00040200890002009904FF480600A9006A91B
:1018B000206801F0D0F81021204601F001F9074618
:1018C0000FB13846E6E7A08C000406903720079059
:1018D00006A9206801F0BFF83721204601F0F0F892
:1018E00007460FB13846D5E74FF0FF300090402053
:1018F00001906020029002200390002004900120BB
:1019000005906946206801F057F8002006900D20E8
:10191000079006A9206801F09EF80D21204601F0ED
:10192000CFF807460FB13846B4E70FE02068406BA8
:1019300000F4004050B1002605E0206801F087F86F
:1019400045F82600761C082EF7D320352068406B1A
:1019500040F22A6108400028E8D02068406B00F07F
:10196000080028B10820216888630427384691E7D9
:101970002068406B00F0020028B1022021688863D3
:101980000227384686E72068406B00F0200028B127
:10199000202021688863062738467BE72068406B53
:1019A00000F4007030B14FF400702168886307279D
:1019B00038466FE74FF0FF3605E0206801F047F842
:1019C00028602D1D761E2068406B00F4001008B1C1
:1019D000002EF2D140F2FF5021688863384659E763
:1019E00030B585B004460025002000900C20019001
:1019F00040200290002003904FF4806004906946DC
:101A0000206801F028F80C21204601F059F805461D
:101A1000284605B030BD70B58AB004460D46002694
:101A2000206A032803D1272630460AB070BD206AF9
:101A300028B1206A012802D0206A022828D1B5F5F1
:101A4000805F01D127260EE0B5F5006F04D1204656
:101A500001F029FD064606E025B9204601F0D8FC34
:101A6000064600E026269EB960680490A0680590AE
:101A7000E0680690079560690890A069099007A83A
:101A800007C88DE80700206804A90EC900F0C0FF50
:101A90003046CAE72DE9FF5F8EB0044617469846E8
:101AA000DDF874B0002002908146002500260190E8
:101AB000DDF83CA000902168C862206A022809D1A4
:101AC00000021C900246002338464146FEF78AFB7E
:101AD000074688461C98099010200A9040200B90D9
:101AE00000200C904FF480600D9009A9206800F050
:101AF000B2FF1021204600F0E3FF0290029818B1D7
:101B0000029812B0BDE8F09FBBF1010F02D9192075
:101B10000A9001E018200A90099709A9206800F0AE
:101B20009AFFBBF1010F05D91921204600F0C8FF2B
:101B3000029004E01821204600F0C2FF02900298B3
:101B400008B10298DDE71C980BFB00F94FF0FF305D
:101B500003901C980BFB00F004909020059000204F
:101B6000069007900120089003A9206800F024FF48
:101B7000BBF1010F3AD931E02068406B00F480409E
:101B800060B3A9EB050020281BD2A9EB050000F0EB
:101B9000030018B9A9EB0500800803E0A9EB0500D4
:101BA0008008401C0190002607E05146206800F0A4
:101BB00066FF0AF1040A2D1D761C019886420DD29B
:101BC000F3E7002605E00AEB8601206800F057FFE6
:101BD000761C082EF7D30AF1200A20352068406BC6
:101BE00040F21A3108400028C6D039E031E02068C0
:101BF000406B00F4804060B3A9EB050020281BD2A5
:101C0000A9EB050000F0030018B9A9EB0500800856
:101C100003E0A9EB05008008401C0190002607E0C6
:101C20005146206800F02BFF0AF1040A2D1D761C96
:101C3000019886420DD2F3E7002605E00AEB860103
:101C4000206800F01CFF761C082EF7D30AF1200A4A
:101C500020352068406B40F21A6108400028C6D049
:101C60002068406B00F4807070B1BBF1010F0BD99C
:101C7000206A28B1206A012802D0206A022803D1F4
:101C80002046FFF7ADFE02902068406B00F0080090
:101C900030B108202168886304200290029830E760
:101CA0002068406B00F0020028B1022021688863A0
:101CB0000290029825E72068406B00F0100030B1D8
:101CC00010202168886305200290029819E7206897
:101CD000406B00F4007038B14FF4007021688863E5
:101CE0000720029002980CE740F2FF5021688863B9
:101CF0006946204601F0AEF9029004E069462046AC
:101D000001F0A8F90290029838B99DF80000072860
:101D1000F4D09DF800000628F0D00298F1E610B546
:101D200004460CB9012010BD94F8510010B92046AA
:101D300000F038F8022084F851002068006820F094
:101D4000400021680860D4E901010843E1680843C4
:101D50002169084361690843218B01F4007108433C
:101D6000E1690843216A0843A16A084321680860C1
:101D70000421A06901EA1040616A084321684860B3
:101D80002168E06A08612068C06920F40060216869
:101D9000C861002084F85200012084F8510000201E
:101DA000C1E7000010B586B0044613492068884298
:101DB0001FD11248006840F4805010490860D020BC
:101DC00001900220029000200390049005200590CD
:101DD00001A90B48FEF7FEFB202001900220029093
:101DE0000390002004900520059001A90448FEF707
:101DF000F1FB06B010BD0000003001404438024045
:101E0000000002402DE9FC4104460E4615461F46DF
:101E10004FF0000894F8510001287BD106B115B9A4
:101E20000120BDE8FC8100BF94F85000012801D1D9
:101E30000220F6E7012084F8500000BF222084F839
:101E40005100002084F85200A663A587E587A064AE
:101E5000E064A086E086A068B0F5004F05D1206858
:101E6000006820F4804021680860A06AB0F5005F37
:101E70000DD100BF2068006820F400502168086080
:101E80002068006840F400502168086000BF606866
:101E9000B0F5827F0ED1A06860B900BF002084F841
:101EA000500000BF2B46324631462046009700F0D6
:101EB000ADF9B6E72068006800F04000402805D082
:101EC0002068006840F0400021680860E06810BBAE
:101ED00012E03B4600220121204601F0BAFB08B186
:101EE00003209EE72068C068C1B2A26B501CA063AB
:101EF0001170E08F401EE087E08F0128E9DCA06AC6
:101F0000B0F5005F28D12068006840F48050216857
:101F1000086021E095E012E03B46002201212046C6
:101F200001F097FB08B103207BE72068C068A16B34
:101F30000880A06B801CA063E08F401EE087E08FCC
:101F40000128E9DCA06AB0F5005F05D120680068CF
:101F500040F48050216808603B4600220121204661
:101F600001F077FB08B103205BE7E06838B920682F
:101F7000C068C1B2A26B501CA063117006E020685B
:101F8000C068A16B0880A06B801CA063E08F401E1E
:101F9000E087A06AB0F5005F12D13B460022012124
:101FA000204601F056FB38B194F8520040F0020090
:101FB00084F85200032034E72068C06880B20190A2
:101FC0006068B0F5827F0DD1A068B0F5004F03D0F6
:101FD000A068B0F5806F05D12068006820F040004F
:101FE00021680860012084F8510020688068C0F3EF
:101FF0000018A06AB0F5005F1DD1B8F1000F1AD02B
:1020000094F8520040F0020084F8520000BF2068AB
:10201000006820F40050216808602068006840F4DF
:1020200000502168086000BF00BF002084F8500005
:1020300000BF0120F5E600BF002084F8500000BF7B
:10204000EFE60220EDE62DE9F04104460E46154686
:102050001F4694F85100012875D106B115B9012029
:10206000BDE8F08100BF94F85000012801D10220A2
:10207000F6E7012084F8500000BF122084F85100D8
:10208000002084F852002663A586E586E064A064FB
:10209000A087E087A06AB0F5005F0DD100BF20687F
:1020A000006820F40050216808602068006840F44F
:1020B00000502168086000BFA068B0F5004F05D14E
:1020C0002068006840F4804021680860206800684B
:1020D00000F04000402805D02068006840F0400033
:1020E00021680860E06878BB606810B1E08E012864
:1020F00008D1216B481C206308782168C860E08EF5
:10210000401EE08611E03B4600220221204601F0FD
:10211000A0FA08B10320A3E7216B481C20630878CC
:102120002168C860E08E401EE086E08E0028EADC70
:10213000A06AB0F5005F38D12068006840F4805094
:102140002168086031E05FE0FFE7606810B1E08E71
:10215000012809D1206B00882168C860206B801C91
:102160002063E08E401EE08612E03B460022022102
:10217000204601F06EFA08B1032071E7206B008859
:102180002168C860206B801C2063E08E401EE086C2
:10219000E08E0028E9DCA06AB0F5005F05D1206878
:1021A000006840F48050216808603B46002202210C
:1021B000204601F04EFA38B194F8520040F0200069
:1021C00084F8520003204BE73B4601228021204641
:1021D00001F03FFA38B194F8520040F0200084F842
:1021E000520003203CE7A06828B900BF2068C068FF
:1021F0002068806800BF012084F8510000BF0020E3
:1022000084F8500000BF2BE7022029E72DE9F84FA2
:1022100004460E4617461D46DDF828904FF000088C
:10222000C24694F85180B8F1010F02D0B8F1220FE4
:1022300077D10EB107B115B90120BDE8F88F00BF05
:1022400094F85000012801D10220F6E7012084F81B
:10225000500000BF94F85100012802D1322084F8C8
:102260005100002084F85200A763A587E587266304
:10227000A586E586A064E064A06AB0F5005F0DD194
:1022800000BF2068006820F40050216808602068C2
:10229000006840F400502168086000BF20680068B2
:1022A00000F04000402805D02068006840F0400061
:1022B00021680860E068B0F5006F75D1606830B1E2
:1022C0006068B0F5827F0CD1E08E012809D1206BC7
:1022D00000882168C860206B801C2063E08E401E4F
:1022E000E086E08EF0B9A06AB0F5005F05D1206805
:1022F000006840F48050216808604B4600220121AC
:10230000204601F0A6F908B1032096E72068C068CE
:10231000A16B0880A06B801CA063E08F401EE0874B
:10232000C7E01FE131E04B4600220221204601F0C8
:1023300090F908B1032080E7206B00882168C8600D
:10234000206B801C2063E08E401EE086E08E48B942
:10235000A06AB0F5005F05D12068006840F48050A5
:10236000216808604B4600220121204601F071F9E6
:1023700008B1032061E72068C068A16B0880A06BEA
:10238000801CA063E08F401EE087E08E0028CADC3E
:1023900060680028C4D14B4600220121204601F08C
:1023A00058F910B1032048E70AE02068C068A16B23
:1023B0000880A06B801CA063E08F401EE08778E05F
:1023C000606830B16068B0F5827F0BD1E08E012883
:1023D00008D1216B481C206308782168C860E08E12
:1023E000401EE086E08ED0B9A06AB0F5005F05D14E
:1023F0002068006840F48050216808604B46002245
:102400000121204601F025F908B1032015E72068D5
:10241000C068A16B0870E08F401EE08749E030E0A3
:102420004B4600220221204601F013F908B1032097
:1024300003E7216B481C206308782168C860E08EA0
:10244000401EE086E08E48B9A06AB0F5005F05D175
:102450002068006840F48050216808604B460022E4
:102460000121204601F0F5F808B10320E5E62068D7
:10247000C068C1B2A26B501CA0631170E08F401EF7
:10248000E087E08E0028CBDC606890B94B460022E4
:102490000121204601F0DDF808B10320CDE62068D7
:1024A000C068C1B2A26B501CA0631170E08F401EC7
:1024B000E087A06AB0F5005F12D14B4600220121EF
:1024C000204601F0C6F838B194F8520040F00200FE
:1024D00084F852000320B0E62068C06880B2009003
:1024E0004B4601228021204601F0B3F838B194F820
:1024F000520040F0200084F8520003209DE60120A5
:1025000084F8510020688068C0F3001AA06AB0F512
:10251000005F21D1BAF1000F1ED094F8520040F0B4
:10252000020084F85200A06AB0F5005F0DD100BF30
:102530002068006820F40050216808602068006866
:1025400040F400502168086000BF00BF002084F8FC
:10255000500000BF012070E600BF002084F850004A
:1025600000BF6AE6022068E6704770B5044625465B
:10257000681EB0F1807F01D301200FE0681E4FF08C
:10258000E02148610F214FF0FF3000F001FA0020F8
:102590004FF0E021886107200861002070BD10B570
:1025A000FFF7E2FF10BD704770B504460025002616
:1025B0002068006800F001052068C06800F480769B
:1025C00065B15EB100BF206800682068406800BF48
:1025D00094F83A0040F0010084F83A00206800685E
:1025E000C0F340052068406900F0010665B15EB1A6
:1025F00000BF206800682068406800BF94F83A0077
:1026000040F0040084F83A0020680068C0F38005B8
:102610002068406900F0010665B15EB100BF206826
:1026200000682068406800BF94F83A0040F002005B
:1026300084F83A0020680068C0F3C005206840694B
:1026400000F0010665B15EB100BF20680068206837
:10265000406800BF94F83A0040F0080084F83A005F
:1026600020680068C0F340152068C06800F02006AC
:102670001DB116B1204601F0E7F820680068C0F3EC
:10268000C0152068C06800F080061DB116B1204654
:1026900001F04CFA94F83A0028B1012084F839008E
:1026A0002046FFF780FF70BD10B504460CB901202D
:1026B00010BDA06900B100E000BF94F8390010B966
:1026C000204600F027F8022084F839002068C0680E
:1026D00020F400502168C860204601F013F92068FA
:1026E000006920F49040216808612068406920F06A
:1026F0002A00216848612068C06840F400502168C1
:10270000C860002084F83A00012084F839000020D5
:10271000CEE7000010B586B004460D492068884217
:1027200013D10C48006840F010000A4908604FF4CB
:10273000C0600190022002900020039004900720C6
:10274000059001A90448FDF745FF06B010BD000043
:1027500000100140443802400000024070477047BA
:1027600000B587B010481149086001204860002179
:102770000E488160C16010210161402141618021CA
:1027800081610021C161016241628162102000907B
:1027900001900290039004900590069069460348CA
:1027A000FEF704FD07B000BD400100A000020020BC
:1027B00000B585B03B48006840F004003949086026
:1027C0000846006840F0200008600846006840F0B5
:1027D000800008600846006840F001000860084674
:1027E000006840F0020008600846006840F04000C1
:1027F00008600846006840F010000860084600685D
:1028000040F0080008604FF40160009026480190F5
:102810000020029069462548FDF7DCFE4FF4005089
:10282000009001200190002002900390694620480A
:10283000FDF7D0FE032000900120019000200290BF
:10284000039069461B48FDF7C5FE4FF450400090C9
:10285000022001900020029003900C200490694611
:102860001448FDF7B7FE4FF400500090002001908F
:10287000029069460F48FDF7ADFE802000900020D1
:102880000190029069460C48FDF7A4FE4FF4F05009
:10289000009000200190029069460548FDF79AFEDD
:1028A00005B000BD303802400000121000080240A0
:1028B0000018024000040240000C024010B5054818
:1028C0000549086000204860322103488160FDF717
:1028D00091FF10BD00300040A800002010B507484F
:1028E0000749086000204860002105488160C160F8
:1028F000416181610349FEF745FE10BD002C014096
:10290000B80000201801002010B50B480B490860E2
:102910004FF482704860002108488160C160016105
:1029200041614FF4007181610021C1610162416226
:102930008162FFF7F4F910BD003001407001002002
:1029400010B50C480C4908604FF41650486000213F
:1029500009488160C16001610C21416100218161F0
:10296000C161FFF7A1FE0348C06840F020000149A3
:10297000C86010BD00100140C40100207047000075
:1029800002480068C0F30220704700000CED00E030
:1029900010B5002807DA0A07140E054A00F00F03E5
:1029A0001B1FD45403E00A07130E024A135410BD30
:1029B00018ED00E000E400E010B5024600230868CE
:1029C000506248689062D1E9020420430C692043B8
:1029D0004C6920430343D06A20F0F7001843D062CB
:1029E000002010BD01460869C0B270470146086862
:1029F00000F003007047000008B501460020009079
:102A00000248084400900098006808BD142C01405A
:102A10000FB410B504460021DDE903021043059A06
:102A20001043069A1043079A1043089A1043014333
:102A3000606847F6FF62904308436060002010BC66
:102A40005DF814FB01460320086000207047014632
:102A5000D1F88000704710B50246002308689060E6
:102A6000D1E901042043CC6820430C69204303438F
:102A7000D0686FF30B001843D060002010BD0246F1
:102A80000868C2F880000020704730B50146002079
:102A90004FF480320C68646BC4F3C01304E00C681C
:102AA000646BC4F3C013521E0AB1002BF7D00AB9ED
:102AB000032030BD40F2FF540D68AC6300BFF8E75F
:102AC0002DE9F04105460E46002700BF2868406BFF
:102AD00000F045000028F9D02868406B00F00400A1
:102AE00030B103270420296888633846BDE8F081A7
:102AF0002868406B00F0010028B1012701202968F7
:102B000088633846F2E72868FFF76CFFB04202D0CE
:102B100010273846EAE740F2FF5029688863002012
:102B2000FFF76AFF04464548204008B93846DDE70C
:102B300004F00040B0F1004F01D11C20D6E704F0B2
:102B40008040B0F1804F01D10920CFE704F0005060
:102B5000B0F1005F01D10A20C8E704F08050B0F165
:102B6000805F01D10B20C1E704F00060B0F1006F7D
:102B700001D10C20BAE704F08060B0F1806F01D180
:102B80000D20B3E704F08070B0F1807F01D10E20FA
:102B9000ACE704F40000B0F5000F01D10F20A5E769
:102BA00004F48000B0F5800F01D110209EE704F4FA
:102BB0000010B0F5001F01D1112097E704F4801038
:102BC000B0F5801F01D1122090E704F40020B0F589
:102BD000002F01D1132089E704F48020B0F5802F65
:102BE00001D1142082E704F40030B0F5003F01D198
:102BF00015207BE704F48030B0F5803F01D116202A
:102C000074E704F40040B0F5004F01D117206DE7E0
:102C100004F48040B0F5804F01D1182066E704F439
:102C20000050B0F5005F01D119205FE704F0080003
:102C3000082801D11A2059E7384657E708E0FFFD78
:102C40000146002000BF0A68526B02F04502002ACC
:102C5000F9D00A68526B02F0040222B10320042268
:102C60000B689A6370470A68526B02F0010222B146
:102C7000012001220B689A63F4E740F2FF520B68CF
:102C80009A6300BFEEE70146002000BF0A68526B5E
:102C900002F04502002AF9D00A68526B02F00402E1
:102CA00022B1032004220B689A63704740F2FF525E
:102CB0000B689A6300BFF8E72DE9F04104460E4621
:102CC00017464FF0000800BF2068406B00F0450039
:102CD0000028F9D02068406B00F0040038B14FF0B4
:102CE00003080420216888634046BDE8F08120681D
:102CF000406B00F0010030B14FF001080120216865
:102D000088634046F1E72068FFF76CFEB04203D0CD
:102D10004FF010084046E8E740F2FF502168886312
:102D20000020FFF769FE054605F4604018B9280C3D
:102D300038804046D9E705F40050B0F5005F01D176
:102D40001320D2E705F48040B0F5804F01D1102068
:102D5000CBE705F40040B0F5004F01D10F20C4E7E8
:102D60004046C2E730B5014629204FF480320C6856
:102D7000646B04F045040CB1012400E000242346F8
:102D800009E00C68646B04F045040CB1012400E018
:102D900000242346521E0BB9002AF2D10C68646B42
:102DA000C4F3800302B123B1032004240D68AC6393
:102DB00030BD0C68646B04F0400424B10020402452
:102DC0000D68AC63F4E700BFF2E7F0B58DB00446E0
:102DD0000E46002500270020009001900820089052
:102DE0001020099040200A9000200B904FF4806042
:102DF0000C9008A92068FFF72EFE10212046FFF74F
:102E00005FFE054615B128460DB0F0BDA08C00044C
:102E100008903720099008A92068FFF71CFE372189
:102E20002046FFF74DFE05460DB12846ECE74FF072
:102E3000FF3002900820039030200490022005907B
:102E4000002006900120079002A92068FFF7B4FD3A
:102E5000002008903320099008A92068FFF7FBFDA7
:102E600033212046FFF72CFE05460DB12846CBE75F
:102E70000AE02068406B00F4001028B12068FFF7DA
:102E8000E6FD4DF827007F1C2068406B40F22A6168
:102E900008400028EDD02068406B00F0080028B101
:102EA00008202168886304252846ADE72068406B28
:102EB00000F0020028B1022021688863022528461C
:102EC000A2E72068406B00F0200028B12020216894
:102ED00088630625284697E72068406B00F4007059
:102EE00030B14FF4007021688863072528468BE7CE
:102EF00040F2FF502168886300980006009901F4B1
:102F00007F4140EA0120009901F47F0140EA11204D
:102F1000009940EA1160706001980006019901F47F
:102F20007F4140EA0120019901F47F0140EA11202C
:102F3000019940EA11603060284665E738B50446DB
:102F4000002000906946204600F03AFA08B1FF20C0
:102F500038BD0098C0F34320FAE730B587B0044687
:102F60000025012001902068FFF740FD18B92525B4
:102F7000284607B030BD206A042825D000200290E2
:102F800002200390C0200490002005904FF4806040
:102F9000069002A92068FFF75EFD2046FFF750FE6D
:102FA00005460DB12846E4E70020FFF725FDA063A4
:102FB0000420FFF721FDE0630820FFF71DFD2064DA
:102FC0000C20FFF719FD6064206A40B1206A0128D7
:102FD00005D0206A062802D0206A022810D10320DA
:102FE00003904020049002A92068FFF734FD01AA55
:102FF00003212046FFF760FE05460DB12846B8E7DD
:10300000206A042824D0BDF804006062A08C00046B
:10301000029009200390C020049002A92068FFF7C5
:103020001AFD2046FFF70CFE05460DB12846A0E725
:103030000020FFF7E1FCA0620420FFF7DDFCE06266
:103040000820FFF7D9FC20630C20FFF7D5FC606354
:1030500028468EE770B586B004460D46002600204F
:103060000090A08C000401900D200290402003905D
:10307000002004904FF48060059001A92068FFF7BC
:10308000EAFC00BF2068406B00F045000028F9D042
:103090002068406B00F0040030B103260420216852
:1030A0008863304606B070BD2068406B00F00100B8
:1030B00028B101260120216888633046F2E72068A4
:1030C000FFF790FC0D2802D010263046EAE740F2C8
:1030D000FF50216888630020FFF78EFC0090009865
:1030E000C0F3432028704F490098084008B9304683
:1030F000D8E7009800F00040B0F1004F01D11C204B
:10310000D0E7009800F08040B0F1804F01D1092055
:10311000C8E7009800F00050B0F1005F01D10A202C
:10312000C0E7009800F08050B0F1805F01D10B2023
:10313000B8E7009800F00060B0F1006F01D10C20FA
:10314000B0E7009800F08060B0F1806F01D10D20F1
:10315000A8E7009800F08070B0F1807F01D10E20C8
:10316000A0E7009800F40000B0F5000F01D10F2097
:1031700098E7009800F48000B0F5800F01D110208E
:1031800090E7009800F40010B0F5001F01D1112065
:1031900088E7009800F48010B0F5801F01D112205C
:1031A00080E7009800F40020B0F5002F01D1132033
:1031B00078E7009800F48020B0F5802F01D114202A
:1031C00070E7009800F40030B0F5003F01D1152001
:1031D00068E7009800F48030B0F5803F01D11620F8
:1031E00060E7009800F40040B0F5004F01D11720CF
:1031F00058E7009800F48040B0F5804F01D11820C6
:1032000050E7009800F40050B0F5005F01D119209C
:1032100048E7009800F00800082801D11A2041E78B
:1032200030463FE708E0FFFD2DE9F04186B0044657
:1032300000200090002600250027804650490860A5
:103240002068FFF7FFFB01204D49A039C1F8A0001D
:10325000002001900290039004904FF4806005904C
:1032600001A92068FFF7F7FB2046FFF70EFC00904E
:103270009DF8000020B19DF8000006B0BDE8F08187
:103280004FF4D5700190082002904020039001A9CE
:103290002068FFF7E0FB2046FFF764FD00909DF8F3
:1032A000000018B9012020624FF0804800200190F2
:1032B0003720029001A92068FFF7CDFB3721204677
:1032C000FFF7FEFB00909DF80000002854D13EE07F
:1032D00000200190372002904020039000200490AD
:1032E0004FF48060059001A92068FFF7B4FB3721F7
:1032F0002046FFF7E5FB00909DF8000010B19DF817
:103300000000BAE71F4848EA000001902920029017
:1033100040200390002004904FF48060059001A9A4
:103320002068FFF798FB2046FFF7ADFC00909DF862
:10333000000010B19DF800009FE70020FFF75CFB44
:103340000646012080EAD67080F001076D1C1FB987
:103350004FF6FF708542BBD34FF6FF70854204D312
:103360001B2000909DF8000087E706F08040B0F138
:10337000804F01D1022020629DF800007DE700000F
:10338000A080254200001080F0B585B006461446A6
:103390001D46002700940720019040200290002045
:1033A00003904FF48060049069463068FFF753FB48
:1033B00007213046FFF784FB0746384605B0F0BDCD
:1033C00070B586B004460D4600261DB92626304647
:1033D00006B070BDA08C000401900D20029040202A
:1033E0000390002004904FF48060059001A92068AC
:1033F000FFF731FB0D212046FFF762FB06460EB1B9
:103400003046E5E70020FFF7F7FA28603046DFE7AF
:1034100030B587B004460025002000900190FFF7EA
:10342000EBFA00F00070B0F1007F03D10E252846C2
:1034300007B030BD69462046FFF7C7FC05460DB111
:103440002846F5E7019800F4803048B3A08C0004CA
:1034500002903720039040200490002005904FF404
:103460008060069002A92068FFF7F5FA3721204610
:10347000FFF726FB05460DB12846D9E7002002904C
:103480000620039002A92068FFF7E5FA06212046EE
:10349000FFF716FB05460DB12846C9E72846C7E7E2
:1034A00025252846C4E730B587B00446002500200E
:1034B00000900190FFF7A0FA00F00070B0F1007FDB
:1034C00003D10E25284607B030BD69462046FFF7D8
:1034D0007CFC05460DB12846F5E7019800F48020F4
:1034E00048B3A08C00040290372003904020049041
:1034F000002005904FF48060069002A92068FFF735
:10350000AAFA37212046FFF7DBFA05460DB1284617
:10351000D9E7022002900620039002A92068FFF755
:103520009AFA06212046FFF7CBFA05460DB1284648
:10353000C9E72846C7E725252846C4E710B5012076
:1035400006490870FCF7CAFE28B90448007820F044
:103550000100024908700148007810BD9000002069
:103560002DE9F04196B005460C464FF00108194888
:10357000007800F0010018B1032016B0BDE8F0811A
:1035800035B1012D07D0022D14D0032D1CD117E029
:103590004FF000081BE06846FCF78EFE4FF4007207
:1035A0000023DDE912613046FCF71CFE20604FF07D
:1035B00000080CE04FF4007020804FF0000806E097
:1035C0004FF40070206002E04FF0040800BF00BF1D
:1035D0004046D2E7900000202DE9FC4106460C460B
:1035E000154600274FF4007061020A460023CDE91A
:1035F00000053046FCF7A8FE00B101273846BDE8BB
:10360000FC81000010B5012006490870FCF75EFE41
:1036100028B90448007820F00100024908700148E8
:10362000007810BD900000202DE9FC4106460C46B4
:10363000154600274FF4007061020A460023CDE9C9
:1036400000053046FCF798FE00B101273846BDE87A
:10365000FC812DE9F04104460E4617461D464FF009
:103660000008FDF7C1F88046002F3ED132E0681C0B
:1036700078B32DB1FDF7B8F8A0EB0800A84229D91E
:103680002068406820F0E0002168486020680068F9
:1036900020F0400021680860A06AB0F5005F0DD1FD
:1036A00000BF2068006820F400502168086020688E
:1036B000006840F400502168086000BF012084F8D1
:1036C000510000BF002084F8500000BF0320BDE877
:1036D000F081FFE7206880683040B04201D10120CE
:1036E00000E000200028C2D03BE030E0681C70B34E
:1036F0002DB1FDF779F8A0EB0800A84227D9206882
:10370000406820F0E000216848602068006820F0F0
:10371000400021680860A06AB0F5005F0DD100BFCD
:103720002068006820F40050216808602068006864
:1037300040F400502168086000BF012084F8510067
:1037400000BF002084F8500000BF0320BFE72068BE
:1037500080683040B04201D1012000E00020002804
:10376000C4D10020B3E710B5FDF76AF8FEF717FFE4
:1037700010BD000000B591B01848006840F08050BE
:10378000164908601648006840F440401449086033
:103790000120009001900220069041050791082128
:1037A0000891C021099106210A9104210B916846D4
:1037B000FDF7FEFAFDF7ECF80F200C9002200D90BB
:1037C00080200E904FF4A0500F904FF48050109036
:1037D00005210CA8FDF718F911B000BD40380240D2
:1037E000007000401448006840F4700012490860FE
:1037F0001248006840F001001049086000200F499D
:10380000083108600D4800680D4908400B49086000
:103810000C48091D0860081F006820F48020091F5B
:103820000860002005490C3108604FF00060024933
:10383000803908607047000088ED00E000380240E1
:10384000FFFFF6FE1030002470B50446002694F801
:103850003960222E01D0322E52D1A068B0F5805F9F
:1038600013D1A56A206940B920684068C0F30800F8
:103870002880A06A801CA06219E020684068C0B25D
:103880002880A06A401CA06211E0206938B9206835
:103890004068C1B2A26A501CA062117007E02068A3
:1038A000406800F07F01A26A501CA0621170E08D98
:1038B000401E80B2E08508BB2068C06820F0200070
:1038C0002168C86094F83900322803D1122084F8A6
:1038D00039000EE02068C06820F480702168C8605C
:1038E0002068406920F0010021684861012084F8C7
:1038F00039002046FEF732FF002070BD0020FCE7B3
:103900000220FAE72DE9F04104460025A06900B144
:1039100000BF2068056925F44055E068054320682C
:1039200005612068C56849F20C6085432169A0687B
:10393000084361690843E169084305432068C5609D
:103940002068456925F44075A069054320684561F4
:10395000E069B0F5004F72D172492068884203D007
:1039600071492068884234D1FDF7AAF900EBC00103
:1039700001EB001061684900B0FBF1F06421B0FB7D
:10398000F1F6FDF79DF900EBC00101EB0010616855
:103990004900B0FBF1F7FDF793F900EBC00101EB33
:1039A000001061684900B0FBF1F06421B0FBF1F058
:1039B00000EBC00101EB0010A7EB8000322101EB0E
:1039C00000106421B0FBF1F066F31F1021688860DD
:1039D000A6E0FDF75FF900EBC00101EB00106168A4
:1039E0004900B0FBF1F06421B0FBF1F6FDF752F9AC
:1039F00000EBC00101EB001061684900B0FBF1F77A
:103A0000FDF748F900EBC00101EB001061684900C7
:103A1000B0FBF1F06421B0FBF1F000EBC00101EB71
:103A20000010A7EB8000322101EB00106421B0FBF5
:103A3000F1F066F31F102168886071E0FFE73949F3
:103A40002068884203D038492068884234D1FDF785
:103A500037F900EBC00101EB001061688900B0FB91
:103A6000F1F06421B0FBF1F6FDF72AF900EBC0019B
:103A700001EB001061688900B0FBF1F7FDF720F958
:103A800000EBC00101EB001061688900B0FBF1F0B0
:103A90006421B0FBF1F000EBC00101EB0010A7EBDB
:103AA0008000322101EB00106421B0FBF1F066F3DD
:103AB0001F102168886033E0FDF7ECF800EBC001CF
:103AC00001EB001061688900B0FBF1F06421B0FBEC
:103AD000F1F6FDF7DFF800EBC00101EB00106168C3
:103AE0008900B0FBF1F7FDF7D5F800EBC00101EB61
:103AF000001061688900B0FBF1F06421B0FBF1F0C7
:103B000000EBC00101EB0010A7EB8000322101EBBC
:103B100000106421B0FBF1F066F31F10216888608B
:103B2000BDE8F081001001400014014070B504466A
:103B3000002694F83960122E01D0322E4CD1A068A4
:103B4000B0F5805F0FD1256A2888C0F3080021688E
:103B50004860206918B9206A801C206209E0206A48
:103B6000401C206205E0216A481C20620878216818
:103B70004860E08C401E80B2E08458BB2068C0687A
:103B800020F080002168C86094F83900322803D101
:103B9000222084F839000EE02068C06820F480708C
:103BA0002168C8602068406920F0010021684861F0
:103BB000012084F8390045F2F053002240212046CC
:103BC00000F00CF808B1032070BD2046FEF7C7FDD9
:103BD0000020F9E70020F7E70220F5E72DE9F041A2
:103BE00004460E4617461D464FF00008FCF7FCFD44
:103BF00080469FBB2BE0681C48B32DB1FCF7F4FD59
:103C0000A0EB0800A84222D92068C06820F08000FC
:103C10002168C8602068C06820F020002168C86062
:103C20002068C06820F480702168C86020684069FE
:103C300020F0010021684861012084F8390000BFAC
:103C4000002084F8380000BF0320BDE8F081206820
:103C500000683040B04202D1012001E003E00020C2
:103C60000028C8D035E02AE0681C40B32DB1FCF72D
:103C7000BBFDA0EB0800A84221D92068C06820F055
:103C800080002168C8602068C06820F0200021689A
:103C9000C8602068C06820F480702168C86020680F
:103CA000406920F0010021684861012084F8390052
:103CB00000BF002084F8380000BF0320C5E720685B
:103CC00000683040B04201D1012000E0002000280F
:103CD000CAD10020B9E7000010B51948006800F00B
:103CE000200030B301201749087017484088801C15
:103CF0001649097888421CDD114840681249134A68
:103D0000127821F8120011480078401C0F49087001
:103D10000D484088801C097888420AD10B480078F9
:103D20000B490870084600780A49087000200749C6
:103D300008702520FCF7BEFD0748FEF735FC10BDD6
:103D4000001001405B000020340200205A000020D7
:103D50005C0000206E000020C40100200FB4084B5E
:103D600010B504A902AA039800F01CF8044602A9A1
:103D7000002000F075F9204610BC5DF814FB00002F
:103D80006140000802E008C8121F08C1002AFAD1E9
:103D900070477047002001E001C1121F002AFBD1CB
:103DA000704700002DE9FF4F8DB09B460F4604463B
:103DB000002606E025280BD05A460F999047641C30
:103DC000761C20780028F5D111B03046BDE8F08F80
:103DD0000025A8460122974900E0054314F8013F59
:103DE000203B02FA03F00842F7D120782E2817D1A1
:103DF00014F8010F45F004052A280ED06FF02F02A9
:103E00002078A0F1300109290AD808EB880102EBDB
:103E1000410100EB0108641CF2E757F8048B641CB5
:103E200020786C280DD004DC4C2812D06A2811D1DF
:103E300004E074280DD07A280CD10AE045F400156E
:103E400007E0617845F48015814202D1641C05F5D4
:103E50008015641C2278692A45D008DC002AB3D07A
:103E6000582A67D0632A10D0642A08D13BE0702A10
:103E700065D0732A13D0752A5AD0782A5AD01046A2
:103E80005A460F999047761CD1E017F8040B8DF82D
:103E9000000000208DF80100E946012003E057F8FA
:103EA000049B4FF0FF3069074FF0000501D40AE092
:103EB0006D1C45450DDA8542FADB19F8051000291D
:103EC000F6D106E06D1C8542FCDB19F805100029CF
:103ED000F8D12E4404E019F8010B5A460F99904787
:103EE0006D1EF8D2A3E00A200021CDE90801C5F338
:103EF000025002280BD001CFC11700290DDA4FF074
:103F0000000CD0EB0C006CEB01012D2308E0FF1D31
:103F100027F00707F7E80201EFE72B0504D52B236D
:103F20008DF8283001233BE0EB0739D02023F7E759
:103F30000A2000E010200021CDE9080107E0102050
:103F4000002145F00405CDE908014FF00808C5F34C
:103F5000025002280FD001CF00214FF0000A2B079A
:103F60001FD5702A0DD0DDE908C38CF0100C5CEA77
:103F7000030C0CD015E0FF1D27F00707F7E802013E
:103F8000EBE740228DF828204FF0010A0BE050EAC1
:103F9000010306D030238DF828308DF82920022324
:103FA0009A46582A04D024A20DF120090B9209E068
:103FB00026A2F9E7DDE90823FCF714F90B9B9B5CCB
:103FC00009F8013D50EA0102F4D1ADEB09002030BF
:103FD0000890680701D44FF001080899884502DD70
:103FE000A8EB010000E000208046002506E00AA8BA
:103FF0005A46405D0F9990476D1C761C5545F6DB7F
:1040000004E030205A460F999047761CB8F1000121
:10401000A8F10108F5DC05E019F8010B5A460F99E3
:104020009047761C0899481E08900029F4DC641C0F
:10403000C7E6000009280100303132333435363705
:1040400038396162636465660000000030313233E4
:104050003435363738394142434445460000000084
:104060000A68531C0B601070704700002DE9F05F68
:1040700004460F4615461E46DDE90CABDDE90A890C
:104080003C49096801F584106FF0EC0100F0C2F9B9
:1040900004213848006800F035FA3649086009689C
:1040A00001F58410214600F0B5F90221314800687D
:1040B00000F028FA2F490860096801F58410394694
:1040C00000F0A8F902212B48006800F01BFA2949EA
:1040D0000860096801F58410294600F09BF9022167
:1040E0002448006800F00EFA22490860096801F5CA
:1040F0008410314600F08EF902211E48006800F05D
:1041000001FA1C490860096801F58410414600F075
:1041100081F902211748006800F0F4F91549086098
:10412000096801F58410494600F074F9022111482C
:10413000006800F0E7F90F490860096801F584108C
:10414000514600F067F902210A48006800F0DAF9E8
:1041500008490860096801F58410594600F05AF9C9
:1041600002210448006800F0CDF902490860BDE86A
:10417000F09F0000440000202DE9F05F07468B46C9
:10418000904699460A9D2846FCF75DF8441CE01CC1
:1041900020F003042F49096801F584106FF0F30142
:1041A00000F038F904212B48006800F0ABF92949E8
:1041B0000860096801F58410394600F0EFF8022123
:1041C0002448006800F09EF922490860096801F55A
:1041D0008410594600F0E2F802211E48006800F001
:1041E00091F91C490860096801F58410414600F006
:1041F000D5F802211748006800F084F915490860D5
:10420000096801F58410494600F0C8F802211148F8
:10421000006800F077F90F49086017E026464FF074
:10422000000A10E015F8011B0A4A126802F5841012
:1042300000F032F901210748006800F063F90549F0
:1042400008600AF1010AB245ECD3A41B002CE5D1A9
:10425000BDE8F09F4400002001B582B0002001902D
:10426000002202210D48FCF7B9FA0023012202A91D
:104270000B48FDF7E8FE0023012201A90848FDF7DD
:10428000E2FE0023012201A90548FDF7DCFE012220
:1042900002210248FCF7A2FA0EBD00000004024011
:1042A00070010020FEB50446200C8DF80A00200A9B
:1042B0008DF80900E0B28DF80800002202211748AD
:1042C000FCF78CFA022507E002A84119002301221D
:1042D0001348FDF7B8FE6D1E002DF5DA002301220C
:1042E00069460F48FDF7AFFE002507E001A8411918
:1042F000002301220A48FDF785FD6D1C022DF5D330
:10430000012202210548FCF769FA9DF804009DF896
:10431000051040EA01263046FEBD000000040240C0
:10432000700100203EB50446002002900090200C51
:104330008DF80600200A8DF80500E0B28DF8040023
:10434000002202211348FCF749FA022507E001A8E0
:104350004119002301221048FDF775FE6D1E002D46
:10436000F5DA0023012269460B48FDF76CFE0025B3
:1043700006E00023012202A90748FDF743FD6D1C5A
:10438000002DF6D0012202210248FCF727FA9DF801
:1043900008003EBD00040240700100207CB50446C8
:1043A0000D46C4F3074040F080008DF80600200A57
:1043B0008DF80500E0B28DF80400280A8DF80100A0
:1043C000E8B28DF80000002202211048FCF706FA3E
:1043D000022607E001A88119002301220C48FDF7FD
:1043E00032FE761E002EF5DA002607E00DEB060100
:1043F000002301220648FDF726FE761C022EF5D387
:10440000012202210148FCF7E9F97CBD00040240C9
:10441000700100207CB505460C46C5F3074040F00E
:1044200080008DF80600280A8DF80500E8B28DF8A6
:104430000400200E8DF80300200C8DF80200200AE5
:104440008DF80100E0B28DF8000000220221104832
:10445000FCF7C4F9022607E001A881190023012214
:104460000C48FDF7F0FD761E002EF5DA002607E079
:104470000DEB0601002301220648FDF7E4FD761C42
:10448000042EF5D3012202210148FCF7A7F97CBDD7
:10449000000402407001002033B581B00446C4F32B
:1044A000074040F080008DF80200200A8DF80100DE
:1044B000E0B28DF80000002202211048FCF78EF9CE
:1044C000022507E00DEB0501002301220C48FDF752
:1044D000BAFD6D1E002DF5DA002506E0002301224D
:1044E00002A90748FDF7AFFD6D1C002DF6D0012293
:1044F00002210248FCF772F93EBD000000040240B0
:104500007001002002465018B0F5805F01D3A0F57D
:10451000805070471FB50020FE494880FCF798F98D
:10452000FFF728F90720FCF71FFA00221146501E5A
:10453000FCF7DBF9002211462520FCF7D6F9FEF73F
:1045400037F9FEF70DF9FEF7B9F9FEF7C7F9FEF7EF
:10455000DBF9FEF7F5F92520FCF7BAF9FEF70EFABC
:104560004FF4F070EC4908604FF48870EB49086034
:104570004FF40970EA4908602B20EA4908600020DE
:10458000E94908602920E94908604FF49270E84938
:1045900008600C20E74908600020E74908600A200D
:1045A000E64908600520E64908700020E5490870E2
:1045B0000120E549087001221146E448FCF70EF994
:1045C00001220221E148FCF709F91420FBF781FFE1
:1045D00000220121DD48FCF701F91420FBF779FFE7
:1045E00001221146D948FCF7F9F81420FBF771FFB6
:1045F0004420FFF731FE0520FBF76BFF0020FFF79B
:104600002BFE0520FBF765FF6220FFF725FE052046
:10461000FBF75FFFCE48FFF785FE7C2801D000BF87
:10462000FEE70021CA486C30FFF736FF0021C8487A
:10463000C430FFF731FFB8480168C5483030FFF794
:10464000ADFEB7480168C2482830FFF7A7FEB5485D
:104650000168BF482C30FFF7A1FEB3480168BC4891
:104660003430FFF79BFEB1480168B9483830FFF796
:1046700095FEAA480168B6484430FFF78FFEAC4863
:104680000168B3483C30FFF789FEAA480168B0488A
:104690004030FFF783FEA8480168AD484830FFF777
:1046A0007DFEA6480168AA484C30FFF777FEA54872
:1046B0000178A7486030FFF7EFFEA3480178A448CF
:1046C0006830FFF7E9FE0021A148F030FFF7E4FE73
:1046D0000021A048FFF762FE00219D487C30FFF7D3
:1046E000DBFE00219A488030FFF7D6FE4FF4C04130
:1046F00098488038FFF752FE4FF4801096490860C2
:10470000410195480068FFF785FE93480068001D49
:1047100091490860914990480068FFF77BFE8E48F8
:104720000068001D8C49086000218B480068FFF775
:1047300071FE022186485030FFF76CFE4FF4801066
:104740008549086083487438FFF7ECFD8449087098
:104750000846007840F080000870084601787D48DF
:104760007438FFF799FE7648017879486C30FFF786
:1047700093FE002408E0E1B276484038FFF78CFE53
:104780000A20FBF7A6FE641C802CF4DD75497648F0
:10479000FBF70AFE75490870BAE100BF6D48203882
:1047A000FFF780FD724908606A481C38FFF77AFD00
:1047B00070490860084600686D4909688842EDD173
:1047C0006C4800686C490860096801F584106FF056
:1047D000FF01FFF71FFE042167480068FFF792FE04
:1047E00065490860096801F584104FF00071FFF712
:1047F00011FE042160480068FFF784FE5E490860EE
:10480000096801F584105549FFF704FE04215A4850
:104810000068FFF777FE58490860FA205749097881
:1048200002220A23CDE90032CDE90210831D3C2289
:104830008E217220FFF71AFC51A04FF4C0631C2296
:1048400016210090F020FFF797FC51A04FF4C063B1
:104850001A22DF2100907220FFF78EFC4FA04FF448
:10486000C06312228221009040F23510FFF784FCD1
:104870001DE028484C49097830F811204BA14D48DB
:10488000FFF76CFA4B48009047480078C01EC0EB19
:10489000001000F182014FF4C06312224FF4BE7089
:1048A000FFF76AFC40480078401C3F4908704248C6
:1048B0000078401E3C4909788842DADC03203A49F6
:1048C00008701448028839A13A48FFF747FA3BA01C
:1048D0004FF4C06312224621009040F23510FFF7DA
:1048E0004BFC34484FF4C0631222462100904FF431
:1048F000BE70FFF741FC074842882CA12D48FFF706
:104900002DFA31A04FF4C06312225521009040F2DD
:1049100035105FE034020020080000200C00002069
:104920001000002014000020180000201C000020AF
:104930002000002024000020280000202C0000205F
:10494000300000203100002032000020000402402E
:104950000024100004251000340000200700002669
:1049600058000020010000209400002000000020DA
:104970003C0000204000002044000020590000209E
:10498000492D425553204D4F4E49544F520000007F
:10499000505245444B4F534300000000545245537E
:1049A00043202020203A00006E000020252E32787F
:1049B00068000000680000205C0000204E41444177
:1049C00057434120203A0000444C55474F53432061
:1049D000203A0000FFF7D0FB4E484FF4C06312228C
:1049E000552100904FF4BE70FFF7C6FB4A488288FD
:1049F000AFF248014748FFF7B1F948A04FF4C06350
:104A000012226421009040F23510FFF7B5FB4148B7
:104A10004FF4C0631222642100904FF4BE70FFF780
:104A2000ABFB41480078401E3B4931F81020AFF203
:104A300084013848FFF792F93CA04FF4C06312227A
:104A4000EB21009040F23510FFF796FB31484FF410
:104A5000C0631222EB2100904FF4BE70FFF78CFB75
:104A600031480278AFF2BC012A48FFF777F932A04B
:104A70004FF4C0631222FA21009040F23510FFF784
:104A80007BFB24484FF4C0631222FA2100904FF4BC
:104A9000BE70FFF771FB2B48007858B12AA04FF485
:104AA000C0631C22E6210090F320FFF765FB002085
:104AB000244908702649096801F584100021FFF790
:104AC000A9FC042122480068FFF71CFD204908606A
:104AD000096801F584106FF0FE01FFF79BFC0421CB
:104AE0001B480068FFF70EFD194908600846016879
:104AF0001848FFF753FC18480078FA2805DA1648DA
:104B00000078401C1449087002E000201249087027
:104B100043E6000068000020340200204F44424970
:104B20004F524341203A00005C0000204348454377
:104B30004B53554D203A00006D73674C656E67749A
:104B400068203A005B00002052435621000000001C
:104B500044000020E824100059000020000000005C
:104B60000102030401020304060708098C4B000834
:104B700000000020A8000000843D0008344C00081C
:104B8000A8000020D8050000943D000800000000A7
:104B90000000000000000000000000000000000015
:104BA0000000000000000000000000000000000005
:104BB00000000000000000000000000000000000F5
:104BC0000000100000801000000000000000000045
:104BD0000000000000010000000600008008000046
:104BE0000000000000000000008005BF180007253D
:104BF00000000000000000000000030000000000B2
:104C0000000000000024F40000000000000000008C
:104C1000010203040607080900000000010000006B
:104C20003D35000805360008D9350008293600084A
:044C300061350008E2
:04000005080001AD41
:00000001FF
